:020000040800F2
:1000000000000520D557010825580108255801088A
:10001000255801082558010825580108000000004E
:1000200000000000000000000000000081C2000885
:10003000255801080000000051C40008994C01082F
:100040002558010825580108255801082558010898
:100050002558010825580108255801082558010888
:100060002558010825580108255801082558010878
:100070002558010825580108255801082558010868
:100080002558010825580108255801082558010858
:100090002558010825580108255801082558010848
:1000A0002558010825580108255801082558010838
:1000B000A54C0108255801082558010825580108B4
:1000C0002558010825580108255801082558010818
:1000D0002558010825580108255801082558010808
:1000E00025580108255801082558010825580108F8
:1000F00025580108255801082558010825580108E8
:1001000025580108255801082558010825580108D7
:1001100025580108255801082558010825580108C7
:1001200025580108255801082558010825580108B7
:1001300025580108255801082558010825580108A7
:10014000255801082558010825580108B94C01080F
:100150002558010825580108255801082558010887
:100160002558010825580108255801082558010877
:1001700025580108255801082558010800000000ED
:100180002558010825580108255801082558010857
:100190002558010825580108255801082558010847
:1001A0002558010825580108255801082558010837
:1001B0002558010825580108255801082558010827
:0801C00025580108255801082B
:1001D00010B5054C237833B9044B13B10448AFF381
:1001E00000800123237010BD4406002000000000A1
:1001F0006CB8020808B5034B1BB103490348AFF3C1
:10020000008008BD00000000480600206CB802080D
:1002100010F8012B11F8013B012A28BF9A42F7D0B0
:10022000D01A7047034613F8012B002AFBD1181A85
:1002300001387047000000000000000000000000CE
:1002400001F0FF01102A2BDB10F0070F08D010F887
:10025000013B013A8B422DD010F0070F42B3F6D18B
:10026000F0B441EA012141EA014122F007047FF0A4
:1002700000070023F0E80256083C85EA010586EAFB
:10028000010685FA47F5A3FA87F586FA47F6A5FA37
:1002900087F68EB9EED1F0BC01F0FF0102F0070243
:1002A00032B110F8013B013A83EA010313B1F8D1EE
:1002B0000020704701387047002D06BF35460338CF
:1002C000073815F0010F07D1013015F4807F02BF08
:1002D000013015F4C03F0130F0BC0138704700BF59
:1002E00081F0004102E000BF83F0004330B54FEAE7
:1002F00041044FEA430594EA050F08BF90EA020F54
:100300001FBF54EA000C55EA020C7FEA645C7FEAE6
:10031000655C00F0E2804FEA5454D4EB5555B8BF09
:100320006D420CDD2C4480EA020281EA030382EA7A
:10033000000083EA010180EA020281EA0303362D0C
:1003400088BF30BD11F0004F4FEA01314FF4801CDF
:100350004CEA113102D0404261EB410113F0004FF1
:100360004FEA03334CEA133302D0524263EB4303A8
:1003700094EA050F00F0A780A4F10104D5F1200E46
:100380000DDB02FA0EFC22FA05F2801841F10001A1
:1003900003FA0EF2801843FA05F359410EE0A5F175
:1003A00020050EF1200E012A03FA0EFC28BF4CF0A6
:1003B000020C43FA05F3C01851EBE37101F000455C
:1003C00007D54FF0000EDCF1000C7EEB00006EEB69
:1003D0000101B1F5801F1BD3B1F5001F0CD34908F3
:1003E0005FEA30004FEA3C0C04F101044FEA44524A
:1003F00012F5800F80F09A80BCF1004F08BF5FEAD1
:10040000500C50F1000041EB045141EA050130BDB0
:100410005FEA4C0C404141EB010111F4801FA4F153
:100420000104E9D191F0000F04BF01460020B1FAA8
:1004300081F308BF2033A3F10B03B3F120020CDAE0
:100440000C3208DD02F1140CC2F10C0201FA0CF0BE
:1004500021FA02F10CE002F11402D8BFC2F1200C23
:1004600001FA02F120FA0CFCDCBF41EA0C019040D9
:10047000E41AA2BF01EB0451294330BD6FEA040422
:100480001F3C1CDA0C340EDC04F11404C4F120020D
:1004900020FA04F001FA02F340EA030021FA04F31F
:1004A00045EA030130BDC4F10C04C4F1200220FA76
:1004B00002F001FA04F340EA0300294630BD21FAB4
:1004C00004F0294630BD94F0000F83F4801306BF7A
:1004D00081F480110134013D4EE77FEA645C18BF6E
:1004E0007FEA655C29D094EA050F08BF90EA020F05
:1004F00005D054EA000C04BF1946104630BD91EAFD
:10050000030F1EBF0021002030BD5FEA545C05D1FF
:100510004000494128BF41F0004130BD14F580043E
:100520003CBF01F5801130BD01F0004545F0FE41B2
:1005300041F470014FF0000030BD7FEA645C1ABFE7
:10054000194610467FEA655C1CBF0B46024650EA1E
:10055000013406BF52EA033591EA030F41F400214A
:1005600030BD00BF90F0000F04BF0021704730B5D0
:100570004FF4806404F132044FF000054FF00001A5
:1005800050E700BF90F0000F04BF0021704730B566
:100590004FF4806404F1320410F0004548BF40423B
:1005A0004FF000013EE700BF42004FEAE2014FEA90
:1005B00031014FEA02701FBF12F07F4393F07F4F6B
:1005C00081F06051704792F0000F14BF93F07F4F9D
:1005D000704730B54FF4607401F0004521F00041E0
:1005E00020E700BF50EA010208BF704730B54FF066
:1005F00000050AE050EA010208BF704730B511F06B
:10060000004502D5404261EB41014FF4806404F1A2
:1006100032045FEA915C3FF4DCAE4FF003025FEA24
:10062000DC0C18BF03325FEADC0C18BF033202EBAC
:10063000DC02C2F1200300FA03FC20FA02F001FA06
:1006400003FE40EA0E0021FA02F11444C1E600BFA5
:1006500070B54FF0FF0C4CF4E06C1CEA11541DBF58
:100660001CEA135594EA0C0F95EA0C0F00F0DEF823
:100670002C4481EA030621EA4C5123EA4C5350EA08
:10068000013518BF52EA033541F4801143F4801359
:1006900038D0A0FB02CE4FF00005E1FB02E506F0EA
:1006A0000042E0FB03E54FF00006E1FB03569CF03F
:1006B000000F18BF4EF0010EA4F1FF04B6F5007F45
:1006C00064F5407404D25FEA4E0E6D4146EB0606B7
:1006D00042EAC62141EA55514FEAC52040EA5E5040
:1006E0004FEACE2EB4F1FD0C88BFBCF5E06F1ED8EA
:1006F000BEF1004F08BF5FEA500E50F1000041EB21
:10070000045170BD06F0004646EA010140EA0200CD
:1007100081EA0301B4EB5C04C2BFD4EB0C0541EAEF
:10072000045170BD41F480114FF0000E013C00F304
:10073000AB8014F1360FDEBF002001F0004170BD28
:10074000C4F10004203C35DA0C341BDC04F1140441
:10075000C4F1200500FA05F320FA04F001FA05F2CD
:1007600040EA020001F0004221F0004110EBD3709A
:1007700021FA04F642EB06015EEA430E08BF20EAC6
:10078000D37070BDC4F10C04C4F1200500FA04F369
:1007900020FA05F001FA04F240EA020001F00041FB
:1007A00010EBD37041F100015EEA430E08BF20EA6E
:1007B000D37070BDC4F1200500FA05F24EEA020EB6
:1007C00020FA04F301FA05F243EA020321FA04F0E5
:1007D00001F0004121FA04F220EA020000EBD3709C
:1007E0005EEA430E08BF20EAD37070BD94F0000F9C
:1007F0000FD101F00046400041EB010111F4801FD0
:1008000008BF013CF7D041EA060195F0000F18BF80
:10081000704703F00046520043EB030313F4801FBC
:1008200008BF013DF7D043EA0603704794EA0C0F76
:100830000CEA135518BF95EA0C0F0CD050EA41068C
:1008400018BF52EA4306D1D181EA030101F0004109
:100850004FF0000070BD50EA410606BF1046194631
:1008600052EA430619D094EA0C0F02D150EA01363D
:1008700013D195EA0C0F05D152EA03361CBF10467E
:1008800019460AD181EA030101F0004141F0FE411D
:1008900041F470014FF0000070BD41F0FE4141F4A1
:1008A000780170BD70B54FF0FF0C4CF4E06C1CEAA1
:1008B00011541DBF1CEA135594EA0C0F95EA0C0F56
:1008C00000F0A7F8A4EB050481EA030E52EA033511
:1008D0004FEA013100F088804FEA03334FF0805532
:1008E00045EA131343EA12634FEA022245EA11155F
:1008F00045EA10654FEA00260EF000419D4208BF10
:10090000964244F1FD0404F5407402D25B084FEABC
:100910003202B61A65EB03055B084FEA32024FF468
:1009200080104FF4002CB6EB020E75EB030E22BFC5
:10093000B61A754640EA0C005B084FEA3202B6EB85
:10094000020E75EB030E22BFB61A754640EA5C0034
:100950005B084FEA3202B6EB020E75EB030E22BFC4
:10096000B61A754640EA9C005B084FEA3202B6EBC5
:10097000020E75EB030E22BFB61A754640EADC0084
:1009800055EA060E18D04FEA051545EA16754FEAE6
:1009900006164FEAC30343EA52734FEAC2025FEA04
:1009A0001C1CC0D111F4801F0BD141EA00014FF093
:1009B00000004FF0004CB6E711F4801F04BF014364
:1009C0000020B4F1FD0C88BFBCF5E06F3FF6AFAE80
:1009D000B5EB030C04BFB6EB020C5FEA500C50F110
:1009E000000041EB045170BD0EF0004E4EEA113193
:1009F00014EB5C04C2BFD4EB0C0541EA045170BD9A
:100A000041F480114FF0000E013C90E645EA060EDD
:100A10008DE60CEA135594EA0C0F08BF95EA0C0F0B
:100A20003FF43BAF94EA0C0F0AD150EA01347FF453
:100A300034AF95EA0C0F7FF425AF104619462CE72A
:100A400095EA0C0F06D152EA03353FF4FDAE10468D
:100A5000194622E750EA410618BF52EA43067FF4DE
:100A6000C5AE50EA41047FF40DAF52EA43057FF46E
:100A7000EBAE12E74A0011D212F5001211D20DD5D9
:100A80006FF47873B3EB62520ED44FEAC12343F094
:100A9000004343EA505323FA02F070474FF000003E
:100AA000704750EA013002D14FF0FF3070474FF0ED
:100AB000000070474FEA4102B2F1E04324BFB3F5B2
:100AC000001CDCF1FE5C0DD901F0004C4FEAC002C5
:100AD0004CEA5070B2F1004F40EB830008BF20F0A9
:100AE0000100704711F0804F21D113F13872BCBF63
:100AF00001F00040704741F480114FEA5252C2F1B8
:100B00001802C2F1200C10FA0CF320FA02F018BF00
:100B100040F001004FEAC1234FEAD32303FA0CFC53
:100B200040EA0C0023FA02F34FEA4303CCE77FEAE2
:100B3000625307D150EA01331EBF4FF0FE4040F42C
:100B40004000704701F0004040F0FE4040F40000DB
:100B5000704700BF53B94AB9002908BF00281CBF1D
:100B60004FF0FF314FF0FF3000F07AB9ADF1080CD3
:100B70006DE904CE00F006F8DDF804E0DDE90223BB
:100B800004B070472DE9F0478C460D460446089E98
:100B9000002B51D18A4217466DD9B2FA82FEBEF1BE
:100BA000000F0BD0CEF1200C01FA0EF520FA0CFC50
:100BB00002FA0EF74CEA050C00FA0EF44FEA174A57
:100BC000250CBCFBFAF81FFA87F90AFB18CC45EA9A
:100BD0000C4508FB09F3AB420AD9ED1908F1FF32C5
:100BE00080F02381AB4240F22081A8F102083D440D
:100BF000ED1AA4B2B5FBFAF00AFB105544EA05441D
:100C000000FB09F9A14509D9E41900F1FF3380F08F
:100C10000A81A14540F2078102383C44A4EB090453
:100C200040EA08400021002E61D024FA0EF400238F
:100C300034607360BDE8F0878B4207D9002E54D032
:100C4000002186E821000846BDE8F087B3FA83F169
:100C5000002940F08E80AB4202D3824200F2FA803B
:100C6000841A65EB03050120AC46002E3FD086E8D0
:100C70001010BDE8F08712B90127B7FBF2F7B7FAF9
:100C800087FEBEF1000F34D1EB1B3A0C1FFA87FC34
:100C90000121B3FBF2F8250C02FB183345EA0345AA
:100CA0000CFB08F3AB4207D9ED1908F1FF3002D273
:100CB000AB4200F2D1808046ED1AA3B2B5FBF2F050
:100CC00002FB105543EA05440CFB00FCA44507D980
:100CD000E41900F1FF3302D2A44500F2B8801846AF
:100CE000A4EB0C0440EA08409DE731463046BDE8DD
:100CF000F087CEF1200405FA0EF307FA0EF720FA7A
:100D000004F83A0C25FA04F448EA0308B4FBF2F1BB
:100D10004FEA184502FB11441FFA87FC45EA0445D7
:100D200001FB0CF3AB4200FA0EF409D9ED1901F105
:100D3000FF3080F08A80AB4240F2878002393D4428
:100D4000EB1A1FFA88F5B3FBF2F002FB103345EA09
:100D5000034500FB0CF3AB4207D9ED1900F1FF3856
:100D60006FD2AB426DD902383D44EB1A40EA0141E3
:100D70008FE7C1F1200722FA07F88B4005FA01F44A
:100D800048EA030320FA07FE4FEA134CFD404EEAFF
:100D9000040EB5FBFCF94FEA1E440CFB19551FFA73
:100DA00083F844EA054509FB08F4AC4202FA01F273
:100DB00000FA01FA08D9ED1809F1FF3043D2AC422C
:100DC00041D9A9F102091D442D1B1FFA8EFEB5FB66
:100DD000FCF00CFB10554EEA054400FB08F8A0455A
:100DE00007D9E41800F1FF3529D2A04527D90238E8
:100DF0001C4440EA0940A4EB0804A0FB02894C45CE
:100E0000C6464D4615D312D056B1BAEB0E0364EB6D
:100E1000050404FA07F7CB401F43CC4037607460E9
:100E20000021BDE8F0871846F8E69046E0E6C245A6
:100E3000EAD2B8EB020E69EB03050138E4E7284675
:100E4000D7E7404691E78146BEE7014678E702389A
:100E50003C4445E7084608E7A8F102083D442BE773
:100E6000704700BF80B500AF314B28225A61304B2C
:100E700009229A612E4B3522DA612D4B0B221A6220
:100E80002B4B40F21B129A62294B40F215225A62F8
:100E9000274B40F21D121A63254B40F23522DA62CD
:100EA0000021234800F0AEFC214B4FF4F0721A668B
:100EB0001F4B4FF488725A661D4B002283F8342072
:100EC0001B4B002283F83520194B002283F8362073
:100ED000174B00225A60164B00229A60144B0022D6
:100EE000DA60134B00221A61114B124A1A60104843
:100EF00002F09BFB0346002B03D100210C4800F0BD
:100F0000A7FB0B4802F080F801224FF480510A48F9
:100F100002F060F801220821084802F05BF811F0A5
:100F2000EFF9074800F0D8F80023184680BD00BF4D
:100F30000CB302200068014000200240002802405B
:100F40000000002080B400AF064B1B68064A342125
:100F500001FB03F3134460331B681846BD465DF87C
:100F6000047B7047A00600200CB3022080B400AFC1
:100F7000064B1B68064A342101FB03F31344643318
:100F80001B681846BD465DF8047B7047A00600202C
:100F90000CB3022080B590B000AF03463960FB80EF
:100FA0000023FB60FFF7CEFF03463B6100237B611C
:100FB000FFF7DCFF0346BB610023FB613B683B633B
:100FC000FF233B6200237B62002387F83C30002331
:100FD00087F83D30002387F83E304FF4C063BB6292
:100FE0000723FB62FFF7AEFF03467B63FFF7BEFFFD
:100FF0000346BB63FA8807F10C031946124802F056
:10100000F7F8FA88114913465B0013449B000B4420
:1010100004334FF0FF321A60FA880C4913465B0024
:1010200013449B000B440833094A1A60FA880749A5
:1010300013465B0013449B000B444FF07F421A6041
:1010400000BF4037BD4680BD0CB30220A40600207F
:101050000000002080B483B000AF7860044A7B6851
:10106000136000BF0C37BD465DF8047B704700BFBE
:10107000A006002080B483B000AF7860074B1A68E8
:10108000074913465B0013449B000B447A681A60BF
:1010900000BF0C37BD465DF8047B7047A0060020FA
:1010A000A406002080B483B000AF7860084B1A68B3
:1010B000084913465B0013449B000B4404337A68D1
:1010C0001A6000BF0C37BD465DF8047B704700BF57
:1010D000A0060020A406002080B483B000AF786092
:1010E000084B1A68084913465B0013449B000B44E5
:1010F00008337A681A6000BF0C37BD465DF8047B80
:10110000704700BFA0060020A406002080B400AFF6
:10111000074B1A68074913465B0013449B000B44B6
:1011200008331B681846BD465DF8047B704700BF56
:10113000A0060020A4060020F0B585B002AF7860BC
:101140000F4B1C680E4B1B680E4A342101FB03F346
:1011500013445C331B681D46FFF7F4FE0646FFF799
:1011600005FF02467B680193002300931346324635
:101170002946204600F01AFC00BF0C37BD46F0BDE2
:10118000A00600200CB3022090B585B000AF7860B7
:101190002D4B1A682D4913465B0013449B000B44EA
:1011A0001B68FB60284B1A68274B196827480B46B9
:1011B0005B000B449B000344043319682348134627
:1011C0005B0013449B00034419601F4B1A681F49BE
:1011D00013465B0013449B000B4408331B68DA88FA
:1011E0007B689BB212FB03F39CB2FFF7ABFE034696
:1011F00098B2154B1A68154913465B0013449B00BF
:101200000B4408331B68DB8802462146002000F0AF
:1012100087F90D4B1A680D4913465B0013449B0078
:101220000B44FA681A60084B1A68084913465B00B9
:1012300013449B000B441B681846FFF71BFF00BFBD
:101240001437BD4690BD00BFA0060020A4060020B4
:1012500090B583B000AF0346FB800B46BB801346BE
:10126000FB701B4B1A681B4913465B0013449B0021
:101270000B4408331B681968FB78A3F12000144B5A
:101280001A68144C13465B0013449B002344083334
:101290001B68DB8803FB00F00D4B1A680D4C1346EE
:1012A0005B0013449B00234408331B689B8807336F
:1012B000002B00DA0733DB1003FB00F3CA18B988F0
:1012C000FB88184600F0BAFA00BF0C37BD4690BD47
:1012D000A0060020A4060020B0B588B000AFBA6018
:1012E0001A460346FB810B46BB811346FB71012363
:1012F000FB830023BB830023BB6100233B61BB68EE
:101300007B6102E0BB690133BB617B695A1C7A6176
:101310001B78002BF6D1FFF715FE4F4B1A684F498B
:1013200013465B0013449B000B4408331B689B88E7
:10133000B0FBF3F33B61FB79022B1CD0032B17D0DE
:10134000012B2ED13A69BB69D11A434B1A68434825
:1013500013465B0013449B00034408331B689B88BF
:1013600003FB01F35B089AB2FB891344FB831BE088
:10137000FB89FB8318E03A69BB69D31A99B2364BF3
:101380001A68364813465B0013449B000344083335
:101390001B689B8811FB03F39AB2FB89D31AFB836A
:1013A00002E0FB89FB8300BFFB8B002B03D0B7F966
:1013B0001E30002B1DDA0123FB831AE0BB681A786C
:1013C000B989FB8B1846FFF743FF234B1A68234963
:1013D00013465B0013449B000B4408331B689A8838
:1013E000FB8B1344FB83BB680133BB60BB8B0133B6
:1013F000BB83BB681B78002B14BF01230023DCB226
:10140000FFF7A0FD0546B98B134B1A681348134626
:101410005B0013449B00034408331B689B8803FB59
:1014200001F3EB1A99B20C4B1A680C4813465B0097
:1014300013449B00034408331B689B8899422CBFCC
:1014400001230023DBB22340DBB2002BB6D100BF67
:101450002037BD46B0BD00BFA0060020A406002076
:1014600080B582B000AF03463960FB80FFF74EFEC7
:101470000346DB88FA8812FB03F399B203233A6828
:101480000020FFF729FF00BF0837BD4680BD0000E0
:10149000B0B582B000AF03463A60FB800B46BB801C
:1014A0001D4B1B681D4A342101FB03F313444833D1
:1014B0001B68022B16D1184B1B68184A342101FBFC
:1014C00003F313445C331C68BD88FFF73BFD034600
:1014D00003FB05F2FB8813445B0023443A6892B295
:1014E0001A8015E00C4B1B680C4A342101FB03F3F6
:1014F00013445C331C68BD88FFF724FD034603FBDF
:1015000005F2FB8813449B0023441A463B68136092
:1015100000BF0837BD46B0BDA00600200CB30220B6
:101520002DE9F04186B002AF0446084611461A463E
:101530002346FB800346BB800B467B8013463B80E3
:101540000023FB60304B1A68304913465B0013449C
:101550009B000B441B681846FFF78CFD2A4B1B6849
:101560002B4A342101FB03F3134448331B68022B3D
:1015700014D1254B1B68264A342101FB03F3134485
:101580005C331C68FFF7DEFC0246BB8803FB02F2FB
:10159000FB8813445B002344FB6013E01A4B1B6879
:1015A0001B4A342101FB03F313445C331C68FFF72F
:1015B000C9FC0246BB8803FB02F2FB8813449B0074
:1015C0002344FB60104B1C68FD687E88B7F80080E0
:1015D000FFF7B8FC02467B88D11A0B4B1A680B4800
:1015E00013465B0013449B0003441B680193009166
:1015F000434632462946204600F0D8F900BF10374E
:10160000BD46BDE8F08100BFA0060020A406002072
:101610000CB3022080B500AF0A4B1B68094A126860
:10162000926942F001029A6101224FF4805106480A
:1016300001F0D0FC01220821044801F0CBFC00BFDE
:1016400080BD00BF0CB302200020024000280240F1
:1016500080B590B000AF78603960644A634B5B6CD2
:1016600043F080635364614B5B6C03F08063BB6247
:10167000BB6A5E4A5D4B1B6B43F4000313635B4B19
:101680001B6B03F400037B627B6A584A574B1B6B4E
:1016900043F010031363554B1B6B03F010033B62C5
:1016A0003B6A524A514B1B6B43F0400313634F4B51
:1016B0001B6B03F04003FB61FB694C4A4B4B1B6BFC
:1016C00043F480731363494B1B6B03F48073BB615A
:1016D000BB69464A454B1B6B43F400731363434B92
:1016E0001B6B03F400737B617B69404A3F4B1B6BB0
:1016F00043F4806313633D4B1B6B03F480633B61D6
:101700003B693A4A394B1B6B43F480731363374B85
:101710001B6B03F48073FB60FB68344A334B1B6B19
:1017200043F480631363314B1B6B03F48063BB6032
:10173000BB681023FB6202233B6300237B6302230D
:10174000BB630E23FB6307F12C031946284801F005
:101750008BF94FF48053FB6202233B630923FB6345
:1017600007F12C031946234801F07EF94FF4664334
:10177000FB6202233B630E23FB6307F12C03194634
:101780001D4801F071F94EF6FF73FB6202233B63C3
:101790000E23FB6307F12C031946184801F064F986
:1017A000F723FB6202233B630E23FB6307F12C0349
:1017B0001946134801F058F94FF48053FB62012396
:1017C0003B6307F12C0319460B4801F04DF9082340
:1017D000FB6201233B6307F12C031946084801F023
:1017E00043F900BF4037BD4680BD00BF003802400E
:1017F0000010024000180240002002400024024075
:101800000028024080B582B000AF786039600A4B92
:1018100008221A60084BC0225A61074B0522DA6180
:10182000054B4FF48032DA62034803F019FF00BF22
:101830000837BD4680BD00BFBC06002080B588B01B
:1018400000AF03463A60FB800B46BB800023FB6180
:101850000023BB61534B1A68534913465B00134482
:101860009B000B4408331B68DB887B824D4B1A6856
:101870004D4913465B0013449B000B4408331B681F
:101880009B883B823B8A0733002B00DA0733DB104F
:10189000DBB2DB00DAB23B8ADBB2D31AFB73002384
:1018A000FB6176E03B8A0733002B00DA0733DB105D
:1018B0001A46FB6903FB02F33A681344BB603B8A98
:1018C0000733002B00DA0733DB10012B02D0022B89
:1018D00004D00CE0BB681B787B6116E0BB681B780A
:1018E0001B02BA680132127813437B610DE0BB68BA
:1018F0001B781A04BB6801331B781B021343BA68B8
:101900000232127813437B6100BF0023BB6136E0D3
:101910003A8ABB69D21AFB7B1344013B012202FACB
:1019200003F31A467B691340002B12D0BB699AB2AD
:10193000FB88134498B21B4B1A681B4913465B0083
:1019400013449B000B441A68BB881946FFF7A0FD9F
:1019500012E0BB699AB2FB88134498B2114B1A6823
:10196000114913465B0013449B000B4404331A686F
:10197000BB881946FFF78CFDBB690133BB613A8A0E
:10198000BB699A42C4D8BB880133BB80FB69013371
:10199000FB617A8AFB699A4284D800BF2037BD4632
:1019A00080BD00BFA0060020A406002080B586B040
:1019B00002AFF860B9607A603B601E4B4FF4403272
:1019C0005A601D4B1B681D4A342101FB03F313446D
:1019D00048331B68022B03D1164B02229A6002E0A7
:1019E000144B00229A60134ABB69D360114B144A0E
:1019F0001A60104800F0A0FD0346002B15D1F968CD
:101A00000C4800F0F7FE0346002B0ED1BA683B6885
:101A100000937B68F969074800F0D8FD0346002B66
:101A200003D10A21034800F0FCFD00BF1037BD467A
:101A300080BD00BF60060020A00600200CB302207D
:101A400000B0024080B500AF032000F039FC002058
:101A500013F0CAF812F0CAFF0023184680BD000038
:101A600080B400AF064B1B781A46064B1B68134424
:101A7000044A136000BFBD465DF8047B704700BF99
:101A800010000020B4B3022080B400AF034B1B68E9
:101A90001846BD465DF8047B704700BFB4B3022012
:101AA00080B584B000AF7860FFF7EEFFB8607B6868
:101AB000FB60FB68B3F1FF3F05D0094B1B781A466A
:101AC000FB681344FB6000BFFFF7DEFF0246BB6804
:101AD000D21AFB689A42F7D300BF1037BD4680BDCB
:101AE0001000002080B584B000AF78600023FB7345
:101AF0007B68002B01D1012331E07B681B6C002B3C
:101B000009D17B6800225A647B68002283F83C205C
:101B1000786812F09DFF7B681B6C03F01003002BAC
:101B200016D17B681A6C104B134043F002027B689D
:101B30001A64786800F002FA7B6800225A647B68B5
:101B40001B6C23F0030343F001027B681A6401E07D
:101B50000123FB737B68002283F83C20FB7B184643
:101B60001037BD4680BD00BFFDEEFFFF80B485B0DD
:101B700000AF78600023FB607B6893F83C30012B5A
:101B800001D1022385E07B68012283F83C207B6839
:101B90001B689B6803F00103012B18D07B681B684E
:101BA0007A681268926842F001029A603C4B1B68A6
:101BB0003C4AA2FB03239A0C13465B001344FB60D0
:101BC00002E0FB68013BFB60FB68002BF9D17B68FE
:101BD0001B689B6803F00103002B59D07B681A6CCB
:101BE000314B134043F480727B681A647B681B6836
:101BF0005B6803F48063002B07D07B681B6C23F4C5
:101C0000405343F480527B681A647B681B6C03F476
:101C10008053002B06D07B685B6C23F006027B6848
:101C20005A6402E07B6800225A647B68002283F8D1
:101C30003C207B681B686FF022021A601B4B5B68BC
:101C400003F01F03002B0FD17B681B689B6803F018
:101C50004053002B1CD17B681B687A68126892681D
:101C600042F080429A6013E07B681B68104A9342FE
:101C70000ED17B681B689B6803F04053002B07D193
:101C80007B681B687A681268926842F080429A60AA
:101C9000002318461437BD465DF8047B704700BF2B
:101CA000C400002083DE1B43FEF8FFFF0023014039
:101CB0000020014080B483B000AF78607B681B686F
:101CC000DB6C18460C37BD465DF8047B704700009E
:101CD00090B484B000AF786039600023FB607B680B
:101CE00093F83C30012B01D1022317E17B680122DC
:101CF00083F83C203B681B68092B36D97B681A683F
:101D00007B681B68D9683B681B689BB21846034612
:101D10005B0003441E3B072000FA03F3DB430B4048
:101D2000D3603B681B68804A93420AD17B681B687A
:101D30007A681268D1683A68926812060A43DA60D3
:101D400037E07B681A687B681B68D9683B689868CD
:101D50003B681B689BB21C4623465B0023441E3B2A
:101D600000FA03F30B43D36023E07B681A687B68B7
:101D70001B6819693B681B689BB2184603465B00E9
:101D80000344072000FA03F3DB430B4013617B6835
:101D90001A687B681B6819693B6898683B681B6810
:101DA0009BB21C4623465B00234400FA03F30B431B
:101DB00013613B685B68062B24D87B6819687B68D5
:101DC0001B68586B3B685A6813469B001344053BDD
:101DD0001F2202FA03F3DB4303404B637B6819685D
:101DE0007B681B68586B3B681B689BB21C463B6852
:101DF0005A6813469B001344053B04FA03F303435C
:101E00004B634CE03B685B680C2B24D87B681968FB
:101E10007B681B68186B3B685A6813469B00134429
:101E2000233B1F2202FA03F3DB4303400B637B686F
:101E300019687B681B68186B3B681B689BB21C4663
:101E40003B685A6813469B001344233B04FA03F390
:101E500003430B6323E07B6819687B681B68D86ABF
:101E60003B685A6813469B001344413B1F2202FA09
:101E700003F3DB430340CB627B6819687B681B6814
:101E8000D86A3B681B689BB21C463B685A6813467D
:101E90009B001344413B04FA03F30343CB627B688A
:101EA0001B68224A934209D13B681B68122B05D15B
:101EB0001F4A1F4B5B6843F4800353607B681B68B9
:101EC0001A4A934225D13B681B68174A934203D0B4
:101ED0003B681B68112B1CD1154A154B5B6843F4FA
:101EE000000353603B681B680F4A934211D1114BAA
:101EF0001B68114AA2FB03239A0C13469B00134450
:101F00005B00FB6002E0FB68013BFB60FB68002BB1
:101F1000F9D17B68002283F83C2000231846103753
:101F2000BD4690BC704700BF120000100020014069
:101F300000230140C400002083DE1B4380B483B033
:101F400000AF7860774A774B5B6823F44033536087
:101F50007449744B5A687B685B6813434B607B68B9
:101F60001B687A681268526822F480725A607B6833
:101F70001B687A68126851687A68126912020A430B
:101F80005A607B681B687A681268526822F0407257
:101F90005A607B681B687A68126851687A68926830
:101FA0000A435A607B681B687A681268926822F458
:101FB00000629A607B681B687A68126891687A6828
:101FC000D2680A439A607B689B6A574A934222D040
:101FD0007B681B687A681268926822F070629A6067
:101FE0007B681B687A68126891687A68926A0A430B
:101FF0009A607B681B687A681268926822F0405287
:102000009A607B681B687A68126891687A68D26AFD
:102010000A439A600FE07B681B687A6812689268CE
:1020200022F070629A607B681B687A681268926816
:1020300022F040529A607B681B687A681268926846
:1020400022F002029A607B681B687A6812689168C5
:102050007A68926952000A439A607B681B6A002B77
:102060001BD07B681B687A681268526842F4006271
:102070005A607B681B687A681268526822F4604272
:102080005A607B681B687A68126851687A68526A7D
:10209000013A52030A435A6007E07B681B687A687A
:1020A0001268526822F400625A607B681B687A6882
:1020B0001268D26A22F47002DA627B681B687A685E
:1020C0001268D16A7A68D269013A12050A43DA6263
:1020D0007B681B687A681268926822F400729A60C2
:1020E0007B681B687A68126891687A68126B520282
:1020F0000A439A607B681B687A681268926822F4C7
:1021000080629A607B681B687A68126891687A6856
:10211000526992020A439A6000BF0C37BD465DF8CF
:10212000047B7047002301400100000F80B485B09C
:1021300000AF78607B6803F00703FB600B4BDB6844
:10214000BB60BA684FF6FF031340BB60FB681A021E
:10215000BB681A43064B1343BB60044ABB68D36099
:1021600000BF1437BD465DF8047B704700ED00E00A
:102170000000FA0580B400AF044BDB681B0A03F0D3
:1021800007031846BD465DF8047B704700ED00E08C
:1021900080B483B000AF0346FB71094997F907305B
:1021A0005B09FA7902F01F02012000FA02F241F8FD
:1021B000232000BF0C37BD465DF8047B704700BF8D
:1021C00000E100E080B483B000AF03463960FB71EA
:1021D00097F90730002B0BDA0D49FB7903F00F0359
:1021E000043B3A68D2B21201D2B20B441A7609E02B
:1021F000084997F907303A68D2B21201D2B20B44BB
:1022000083F8002300BF0C37BD465DF8047B7047A0
:1022100000ED00E000E100E080B489B000AFF860BC
:10222000B9607A60FB6803F00703FB61FB69C3F1E7
:102230000703042B28BF0423BB61FB690433062B6F
:1022400002D9FB69033B00E000237B610122BB69EB
:1022500002FA03F35A1EBB681A407B699A400121B7
:102260007B6901FA03F3591E7B680B401343184640
:102270002437BD465DF8047B7047000080B582B00E
:1022800000AF78607B68013BB3F1807F01D301230D
:102290000FE00A4A7B68013B53600F214FF0FF308B
:1022A000FFF790FF054B00229A60044B07221A604B
:1022B000002318460837BD4680BD00BF10E000E08F
:1022C00080B582B000AF78607868FFF72FFF00BF5D
:1022D0000837BD4680BD80B586B000AF0346B96003
:1022E0007A60FB7300237B61FFF744FF78617A68B3
:1022F000B9687869FFF790FF024697F90F301146E9
:102300001846FFF75FFF00BF1837BD4680BD80B598
:1023100082B000AF0346FB7197F907301846FFF70C
:1023200037FF00BF0837BD4680BD80B582B000AF23
:1023300078607868FFF7A2FF034618460837BD4665
:1023400080BD000080B483B000AF78607B68042B50
:1023500006D1094A084B1B6843F00403136005E0EB
:10236000054A054B1B6823F00403136000BF0C37BC
:10237000BD465DF8047B704710E000E080B582B098
:1023800000AF78607B68002B01D1012354E07B68AB
:102390005B7FDBB2002B05D17B6800221A7778685F
:1023A00012F090FB7B6802225A777B681B79002B26
:1023B0000CD17B681B68224A5A617B681B687A686B
:1023C0001268926822F018029A600CE07B689968A3
:1023D0007B68DB681A46786800F034F80346002B07
:1023E00001D0012328E07B685B79002B05D17B6855
:1023F0001B684FF0FF321A6104E07B681B687A6843
:1024000012691A617B681B687A681268926822F008
:1024100060017A6852690A439A607B681B687A682F
:102420001268926822F080017A6892690A439A6081
:102430007B6801225A77002318460837BD4680BDC5
:10244000B71DC10480B487B000AFF860B9607A608E
:102450001F237B6100BFBA687B6922FA03F303F094
:102460000103002B04D17B695A1E7A61002BF2D143
:102470007B68182B43D801A252F823F0FF240008F0
:10248000FF240008FF240008FF240008FF240008A0
:10249000FF240008FF240008FF240008F52400089A
:1024A000FF240008FF240008FF240008FF24000880
:1024B000FF240008FF240008FF240008EB24000884
:1024C000FF240008FF240008FF240008FF24000860
:1024D000FF240008FF240008FF240008E12400086E
:1024E0007B69062B0DD901231FE07B69072B0AD9D5
:1024F00001231AE07B690F2B07D9012315E000BFE8
:1025000004E000BF02E000BF00E000BFFB681B6802
:10251000BA685A61FB681B68FA681268926822F010
:1025200018017A680A439A60002318461C37BD4692
:102530005DF8047B704700BF80B582B000AF786063
:102540007B68002B01D1012339E07B6893F8393097
:10255000DBB2002B06D17B68002283F83820786834
:102560000EF0E0FC7B68022283F839207B681B6850
:102570007A681268126822F440317A6852680A4315
:102580001A607B681B687A681268526B22F0070138
:102590007A6892680A435A637B681A687B681B688A
:1025A000196C094B0B407968C9680B4313647B684D
:1025B0000022DA637B68012283F839200023184661
:1025C0000837BD4680BD00BF00C0FFFF80B586B0A4
:1025D00002AFF860B9607A603B60FB6893F838300E
:1025E000012B01D1022318E0FB68012283F8382077
:1025F000FB68022283F83920BB6900933B687A6844
:10260000B968F86800F08AF9FB681B68FA68126814
:10261000126842F001021A60002318461037BD46C6
:1026200080BD80B584B000AF786039600023FB6066
:102630000023BB607B681B681B6803F00103002B51
:1026400056D0FFF721FAF8604BE07B681B685B68A7
:10265000BB60BB6803F02103002B23D0BB6803F0F1
:102660002003002B05D07B68DB6B43F002027B6804
:10267000DA63BB6803F00103002B05D07B68DB6BDA
:1026800043F001027B68DA637B681B6821229A6051
:102690007B68042283F839207B68002283F8382085
:1026A0000123A2E03B68B3F1FF3F1AD03B68002B47
:1026B00007D0FFF7E9F90246FB68D21A3B689A4255
:1026C0000FD97B68DB6B43F020027B68DA637B68A1
:1026D000032283F839207B68002283F83820032303
:1026E00083E07B681B685B6803F00203002BACD0BF
:1026F0007B681B68DB6903F02003002B06D17B6835
:102700001B685B6A03F02003002B61D0FFF7BCF964
:10271000F86056E07B681B685B68BB60BB6803F0D1
:102720002903002B2ED0BB6803F00803002B05D033
:102730007B68DB6B43F004027B68DA63BB6803F001
:102740002003002B05D07B68DB6B43F002027B6823
:10275000DA63BB6803F00103002B05D07B68DB6BF9
:1027600043F001027B68DA637B681B6829229A6068
:102770007B68042283F839207B68002283F83820A4
:10278000012332E03B68B3F1FF3F1AD03B68002BD6
:1027900007D0FFF779F90246FB68D21A3B689A42E4
:1027A0000FD97B68DB6B43F020027B68DA637B68C0
:1027B000032283F839207B68002283F83820032322
:1027C00013E07B681B685B6803F01003002BA1D04B
:1027D0007B681B6812229A607B68012283F839208B
:1027E0007B68002283F83820002318461037BD4646
:1027F00080BD000080B487B000AF786039603B686E
:102800001B0118337A6813443B610023FB600023EB
:102810007B617B685B68B3F5403F7B6893F8383039
:10282000012B01D1022371E07B68012283F838205B
:102830007B68022283F839203B695A683B699B68B0
:102840001B0413437B61344BFB603B695B680A2BC1
:1028500003D03B695B68092B07D13B69DB6803F058
:102860007F437A6913437B6105E03B69DB681B06A4
:102870007A6913437B613B68002B1FD17B681B681F
:102880007A681268516AFA68D24311407A690A4339
:102890005A627B681B683A6912689A613B695B6897
:1028A0000A2B03D03B695B68092B26D17B681B6828
:1028B0003A69D26822F07F429A621EE07B681B6808
:1028C0007A681268D169FA68D24311407A690A437A
:1028D000DA617B681B683A6912681A613B695B6858
:1028E0000A2B03D03B695B68092B06D17B681B6808
:1028F0003A69D26822F07F421A627B68012283F82B
:1029000039207B68002283F83820002318461C37C2
:10291000BD465DF8047B70470F0003FF80B48BB0A9
:1029200000AFF860B9607A603B6000237B620023EF
:102930003B620023FB610023BB6100237B61FB68DA
:102940001B68FA681268526C02F040413A68100441
:102950003A6B02430A435A64FB681B687A68DA637D
:10296000FB685B68B3F5403F74D1BB6803F07F43FD
:102970003B62BB6803F47F03FB61BB6803F47F43E6
:10298000BB61BB68DBB27B61FB689B68002B08D135
:10299000BA69FB691A433B6A1A437B6913437B623A
:1029A00053E0FB689B68012B06D1BA69FB691A43A7
:1029B0007B6913437B6248E0FB689B68022B11D163
:1029C000FB69DB0CFB61BB699B0ABB617B69DB08B4
:1029D0007B61BB695A01FB69DB021A437B691343C4
:1029E0007B6232E0FB689B68032B17D13B6ADB0FED
:1029F0003B62FB69DB0CFB61BB69DB0ABB617B698A
:102A0000DB087B61BB695A01FB699B021A433B6A85
:102A1000DB031A437B6913437B6216E03B6A1B0F9F
:102A20003B62FB691B0DFB61BB691B0BBB617B69D7
:102A30001B097B61BB691A01FB691B021A433B6AD4
:102A40001B031A437B6913437B62FB681B687A6A2A
:102A50009A6303E0FB681B68BA68DA6000BF2C3732
:102A6000BD465DF8047B704780B489B000AF7860E4
:102A700039600023FB6100237B6100233B6100235D
:102A8000BB610023FB6175E10122FB6902FA03F3DC
:102A90007B613B681A687B6913403B613A697B69DB
:102AA0009A4240F064813B685B68022B03D03B682C
:102AB0005B68122B23D1FB69DA087B68083253F874
:102AC0002230BB61FB6903F007039B000F2202FA6F
:102AD00003F3DB43BA691340BB613B681A69FB69C6
:102AE00003F007039B0002FA03F3BA691343BB61C7
:102AF000FB69DA087B680832B96943F822107B6801
:102B00001B68BB61FB695B00032202FA03F3DB4332
:102B1000BA691340BB613B685B6803F00302FB6961
:102B20005B0002FA03F3BA691343BB617B68BA69BD
:102B30001A603B685B68012B0BD03B685B68022B1B
:102B400007D03B685B68112B03D03B685B68122B96
:102B500030D17B689B68BB61FB695B00032202FA92
:102B600003F3DB43BA691340BB613B68DA68FB6976
:102B70005B0002FA03F3BA691343BB617B68BA696D
:102B80009A607B685B68BB610122FB6902FA03F310
:102B9000DB43BA691340BB613B685B681B0903F008
:102BA0000102FB6902FA03F3BA691343BB617B6854
:102BB000BA695A607B68DB68BB61FB695B00032212
:102BC00002FA03F3DB43BA691340BB613B689A68BE
:102BD000FB695B0002FA03F3BA691343BB617B68CC
:102BE000BA69DA603B685B6803F08053002B00F041
:102BF000BE80654A644B5B6C43F480435364624B14
:102C00005B6C03F48043FB60FB68604AFB699B08D4
:102C1000023352F82330BB61FB6903F003039B00CE
:102C20000F2202FA03F3DB43BA691340BB617B68EE
:102C3000574A934237D07B68564A934231D07B68DB
:102C4000554A93422BD07B68544A934225D07B68E7
:102C5000534A93421FD07B68524A934219D07B68F3
:102C6000514A934213D07B68504A93420DD07B68FF
:102C70004F4A934207D07B684E4A934201D10923C1
:102C800012E00A2310E008230EE007230CE00623DD
:102C90000AE0052308E0042306E0032304E00223FE
:102CA00002E0012300E00023FA6902F0030292002F
:102CB0009340BA691343BB613449FB699B080233F3
:102CC000BA6941F823203C4B1B68BB613B69DB437D
:102CD000BA691340BB613B685B6803F48033002B27
:102CE00003D0BA693B691343BB61334ABB691360C4
:102CF000314B5B68BB613B69DB43BA691340BB6125
:102D00003B685B6803F40033002B03D0BA693B696E
:102D10001343BB61284ABB695360274B9B68BB6167
:102D20003B69DB43BA691340BB613B685B6803F4F2
:102D30008013002B03D0BA693B691343BB611E4A61
:102D4000BB6993601C4BDB68BB613B69DB43BA69C1
:102D50001340BB613B685B6803F40013002B03D096
:102D6000BA693B691343BB61134ABB69D360FB6912
:102D70000133FB61FB690F2B7FF686AE00BF243762
:102D8000BD465DF8047B70470038024000380140C2
:102D9000000002400004024000080240000C024013
:102DA000001002400014024000180240001C0240C3
:102DB0000020024000240240003C014080B487B063
:102DC00000AF7860396000233B610023FB60002383
:102DD000BB6000237B61DAE001227B6902FA03F326
:102DE0003B613A683B691340FB60FA683B699A4271
:102DF00040F0CA807B681A687B695B00032101FA96
:102E000003F3DB431A407B681A607B69DA087B694D
:102E1000D9087B68083153F821107B6903F0070358
:102E20009B000F2000FA03F3DB4319407B68083254
:102E300043F822107B689A687B695B00032101FAE2
:102E400003F3DB431A407B689A607B685A68012170
:102E50007B6901FA03F3DB431A407B685A607B68A5
:102E6000DA687B695B00032101FA03F3DB431A4054
:102E70007B68DA604B4A7B699B08023352F8233047
:102E8000BB607B6903F003039B000F2202FA03F38C
:102E9000BA681340BB607B68434A934237D07B6873
:102EA000424A934231D07B68414A93422BD07B689F
:102EB000404A934225D07B683F4A93421FD07B68AB
:102EC0003E4A934219D07B683D4A934213D07B68B7
:102ED0003C4A93420DD07B683B4A934207D07B68C3
:102EE0003A4A934201D1092312E00A2310E0082351
:102EF0000EE007230CE006230AE0052308E0042384
:102F000006E0032304E0022302E0012300E00023A3
:102F10007A6902F00302920003FA02F2BB689A4255
:102F200032D17B6903F003039B000F2202FA03F303
:102F3000BB601C487B699B081A497A699208023277
:102F400051F82210BA68D2430A40023340F82320D5
:102F50001F491F4B1A68FB68DB4313400B601C4979
:102F60001B4B5A68FB68DB4313404B601849184BF6
:102F70009A68FB68DB4313408B601549144BDA6891
:102F8000FB68DB431340CB607B6901337B617B696A
:102F90000F2B7FF621AF00BF1C37BD465DF8047BC9
:102FA000704700BF003801400000024000040240AA
:102FB00000080240000C02400010024000140240D1
:102FC00000180240001C0240002002400024024081
:102FD000003C014080B483B000AF78600B467B803A
:102FE00013467B707B78002B03D07A887B689A61CC
:102FF00003E07B881A047B689A6100BF0C37BD46EA
:103000005DF8047B7047000080B584B000AF786045
:103010000023FB600023BB607B68002B01D10123F0
:10302000C7E07B6893F8A130DBB2002B06D17B6848
:10303000002283F8A02078680DF02EFE7B68022223
:1030400083F8A1207B681B687A681268926922F075
:1030500070429A617B681B687A68126891697A6825
:1030600050687A68926810437A68D26810437A6828
:10307000126902430A439A617B681A687B681B687D
:1030800099684E4B0B4093607B685B691B04FB6047
:103090007B681B687A68126891687A689069FA6838
:1030A00002430A439A607B681A687B681B68D96888
:1030B000424B0B40D3607B68DB691B04FB607B6881
:1030C0001B687A681268D1687A68106AFA680243E5
:1030D0000A43DA607B681A687B681B681969374B9A
:1030E0000B4013617B685B6A1B04FB607B681B6899
:1030F0007A68126811697A68906AFA6802430A432A
:103100001A617B681A687B681B6859692B4B0B40F6
:1031100053617B68DB6A1B04FB607B681B687A6811
:10312000126851697A68106BFA6802430A435A615F
:103130007B6893F835301B02FB607B6893F8363070
:103140001B04BB607B681B687A681268D26A02F055
:103150007F42DA627B681B687A681268D16AB86855
:10316000FA680243786890F8340002430A43DA624E
:103170007B681B687A681268526B42F004025A63DB
:103180007B681B687A681268526B42F002025A63CD
:103190007B681B687A681268926942F001029A6142
:1031A0007B680022C3F8A4207B68012283F8A12059
:1031B000002318461037BD4680BD00BF00F800F060
:1031C00080B582B000AF786078680DF0DFFD7B6875
:1031D0000022C3F8A4207B68002283F8A1207B682A
:1031E000002283F8A020002318460837BD4680BD82
:1031F000B0B584B000AFF860B9607A60FB6893F84E
:10320000A030012B01D102232CE0FB68012283F8BE
:10321000A020FB68022283F8A120FA687B68342191
:1032200001FB03F3134403F13802BB6814461D4647
:103230000FCD0FC40FCD0FC40FCD0FC42B6823606B
:103240007A68B968F86800F0FFF9FB681B6801222A
:103250005A62FB68012283F8A120FB68002283F8F0
:10326000A020002318461037BD46B0BD80B485B0FD
:1032700000AFF860B9607A60FB6893F8A030012B6A
:1032800001D1022331E0FB68012283F8A020FB6812
:10329000022283F8A120FB681B681A467B68DB01C9
:1032A000134484331A46FB681B6819467B68DB01AC
:1032B0000B448433DB6803F07F43D360FB681B68F7
:1032C0001A467B68DB01134484331A46BB68D3601B
:1032D000FB681B6801225A62FB68012283F8A12067
:1032E000FB68002283F8A020002318461437BD464F
:1032F0005DF8047B704780B489B000AFF860B960B6
:103300007A603B600023FB610023BB6100237B618B
:10331000FB6893F8A030012B01D1022359E0FB6830
:10332000012283F8A020FB68022283F8A120002359
:10333000BB6141E0FA683B68342101FB03F31344AD
:1033400048331B68062B14D1BA6913461B0113447A
:103350001A06BB681B68DBB21A43BB681B6803F420
:103360007F431A43BB681B6803F47F031343FB616D
:1033700010E0BB691A06BB681B68DBB21A43BB6866
:103380001B6803F47F431A43BB681B6803F47F0385
:103390001343FB61BB6804337B617B69BB60FB68E3
:1033A0001B681A463B68DB01134484331A46FB69E9
:1033B0001364BB690133BB61BA697B689A42B9D3B4
:1033C000FB68012283F8A120FB68002283F8A0207B
:1033D000002318462437BD465DF8047B704780B44F
:1033E00083B000AF786039607B6893F8A030012B20
:1033F00001D1022327E07B68012283F8A0207B68AB
:10340000022283F8A1207B681B681A463B68DB0117
:10341000134484331A467B681B6819463B68DB01FA
:103420000B4484331B6843F0020313607B681B6802
:1034300001225A627B68012283F8A1207B68002266
:1034400083F8A020002318460C37BD465DF8047BA6
:10345000704780B483B000AF786039607B6893F8C0
:10346000A030012B01D1022327E07B68012283F8E1
:10347000A0207B68022283F8A1207B681B681A4683
:103480003B68DB01134484331A467B681B6819468A
:103490003B68DB010B4484331B6823F00203136099
:1034A0007B681B6801225A627B68012283F8A12095
:1034B0007B68002283F8A020002318460C37BD4605
:1034C0005DF8047B704780B586B000AFF860B960E6
:1034D0007A603B60FB6893F8A030012B01D1022396
:1034E00033E0FB68012283F8A020FB68022283F806
:1034F000A1203B68342202FB03F33833FA681344FB
:103500007B617B69BA681A607B699A6ABB681A44F6
:103510007B695A607B697A689A607B69DA6A7B6842
:103520001A447B69DA603A687969F86800F08CF8C7
:10353000FB681B6801225A62FB68012283F8A12004
:10354000FB68002283F8A020002318461837BD46E8
:1035500080BD80B586B000AFF860B9607A60FB6866
:1035600093F8A030012B01D1022324E0FB68012253
:1035700083F8A020FB68022283F8A1207B68342214
:1035800002FB03F33833FA6813447B617B69BA6842
:103590005A617A687969F86800F056F8FB681B6828
:1035A00001225A62FB68012283F8A120FB680022F5
:1035B00083F8A020002318461837BD4680BD80B58B
:1035C00086B000AFF860B9607A60FB6893F8A0300D
:1035D000012B01D1022324E0FB68012283F8A02003
:1035E000FB68022283F8A1207B68342202FB03F3EC
:1035F0003833FA6813447B617B69BA685A627A6827
:103600007969F86800F020F8FB681B6801225A62AB
:10361000FB68012283F8A120FB68002283F8A02028
:10362000002318461837BD4680BD80B483B000AF74
:1036300078607B6893F8A130DBB218460C37BD4642
:103640005DF8047B7047000080B489B000AFF8607B
:10365000B9607A600023FB610023BB6100237B61BA
:10366000BB685A68FB681B68DB681B0CC3F30B0361
:1036700013441B04FB61FB681B681A467B68DB0173
:10368000134484331A46FB681B6819467B68DB01C8
:103690000B4484335B6803F470435360FB681B681E
:1036A0001A467B68DB01134484331946BB681A68E9
:1036B000FB681B68DB681B0CC3F30B0313445A1C29
:1036C000FB6913434B60BB68DA68FB681B68DB6807
:1036D000C3F30A0313441B04FB61FB681B681A460F
:1036E0007B68DB01134484331A46FB681B68194668
:1036F0007B68DB010B4484339B6803F47043936065
:10370000FB681B681A467B68DB0113448433194647
:10371000BB689A68FB681B68DB68C3F30A03134441
:103720005A1CFB6913438B60FB681B681A467B6855
:10373000DB01134484331A46FB681B6819467B6817
:10374000DB010B4484331B6923F007031361FB681F
:103750001B681A467B68DB01134484331A46BB6836
:103760001B691361BB6893F831301B02FB61BB68B6
:1037700093F832301B04BB61BB689B691B067B61FD
:10378000FB681B681A467B68DB01134484339B6922
:10379000FB681B681A467B68DB01134484331A46B6
:1037A00000239361FB681B681A467B68DB011344A6
:1037B00084331946BB6893F830301A46FB691A43C4
:1037C000BB691A437B6913438B61FB681B681A460C
:1037D0007B68DB01134484331A46FB681B68194677
:1037E0007B68DB010B4484335B6923F0FF03536187
:1037F000FB681B681A467B68DB01134484331A4656
:10380000BB685B695361FB681B681A467B68DB0118
:10381000134484331946FB681B681A467B68DB0136
:1038200013448433DA695A4B1340CB61FB681B683D
:103830001A467B68DB01134484331946BB68DA6996
:10384000BB681B6A1343CB61FB681B681A467B6825
:10385000DB01134484339B6AFB681B681A467B6850
:10386000DB01134484331A4600239362FB681B6810
:103870001A467B68DB01134484331A46BB685B6AD3
:103880009362BB681B69002B02D10423FB611BE020
:10389000BB681B69012B02D10323FB6114E0BB68E9
:1038A0001B69042B0BD0BB681B69022B07D0BB68BC
:1038B0001B69032B03D0BB681B69072B02D10223B2
:1038C000FB6101E00123FB61FB681B681A467B6812
:1038D000DB01134484331A46FB681B6819467B6876
:1038E000DB010B448433DB6A03F0E023D362FB6823
:1038F0001B681A467B68DB01134484331846BB6897
:103900009B6AFA6902FB03F31A04BB685968BB6837
:103910001B68CB1AF96901FB03F303331343C3623A
:10392000FB681B681A467B68DB0113448433194625
:10393000FB681B681A467B68DB01134484331A6BEF
:10394000144B13400B63FB681B681A467B68DB0152
:10395000134484331A46BB68DB6A1363FB681B6835
:103960001A467B68DB01134484331A46FB681B68E4
:1039700019467B68DB010B4484331B6843F0010369
:10398000136000BF2437BD465DF8047B704700BF5D
:10399000F8F8FFFF00F8FFFFF0B58FB00AAF7860CE
:1039A0000023FB607B68002B01D10123FEE07B68D4
:1039B000032283F8B923786811F0DAF97B681B6871
:1039C000184603F066FE7B681B683B607E686D46A8
:1039D00006F110040FCC0FC50FCC0FC594E80300FF
:1039E00085E80300331D0ECB386803F0EFFD7B68DC
:1039F0001B680021184603F05DFE0023FB604CE0CD
:103A00007968FA681346DB009B1A9B000B44393334
:103A100001221A70FB68D8B27968FA681346DB0095
:103A20009B1A9B000B44383302461A70FB6898B20D
:103A30007968FA681346DB009B1A9B000B443E33FF
:103A400002461A807968FA681346DB009B1A9B00CD
:103A50000B443B3300221A707968FA681346DB0086
:103A60009B1A9B000B44403300221A607968FA6865
:103A70001346DB009B1A9B000B44443300221A6060
:103A80007968FA681346DB009B1A9B000B444C33A1
:103A900000221A60FB680133FB60FB680E2BAFD974
:103AA0000023FB605AE07968FA681346DB009B1A32
:103AB0009B000B4403F2F91300221A70FB68D8B282
:103AC0007968FA681346DB009B1A9B000B4403F5E8
:103AD000FC7302461A70FB6898B27968FA6813465C
:103AE000DB009B1A9B000B443E3302461A80796828
:103AF000FA681346DB009B1A9B000B4403F2FB138E
:103B000000221A707968FA681346DB009B1A9B0042
:103B10000B4403F5007300221A607968FA681346B3
:103B2000DB009B1A9B000B4403F5017300221A6013
:103B30007968FA681346DB009B1A9B000B4403F577
:103B4000037300221A607B681A68FB6840339B008D
:103B5000134400225A60FB680133FB60FB680E2BA4
:103B6000A1D97B681B683B607E686D4606F1100436
:103B70000FCC0FC50FCC0FC594E8030085E80300F8
:103B8000331D0ECB386803F0BDFD7B68012283F83E
:103B9000B9237B685B6A012B02D1786801F078F861
:103BA0007B681B68184604F0B2FD002318461437E2
:103BB000BD46F0BD80B582B000AF78607B6893F8F9
:103BC000B833012B01D1022312E07B68012283F874
:103BD000B8237B681B68184604F082FD7B681B686D
:103BE000184603F045FD7B68002283F8B8230023C4
:103BF00018460837BD4680BD80B58CB000AF7860F0
:103C00007B681B683B620023FB620023BB620023CE
:103C1000FB6100237B620023BB6100237B610023E7
:103C20003B61984BFB607B681B68184604F011FEF3
:103C30000346002B40F0E1847B681B68184604F0C3
:103C40007DFD0346002B00F0D7847B681B68184677
:103C500004F074FD034603F00203022B03D17B68DA
:103C60001B6802225A617B681B68184604F066FDD7
:103C7000034603F40023B3F5002F40F0ED8000234A
:103C80007B627B681B68184604F06DFDB862DFE05C
:103C9000BB6A03F00103002B00F0D4807B681B6833
:103CA0007A6AD2B21146184604F08DFDF861FB69BC
:103CB00003F00103002B00F082807B6A5A013B6A0B
:103CC000134403F530631A46012393607B681B6934
:103CD000012B11D13B6A03F530639B6803F4004369
:103CE000002B09D07B6A5A013B6A134403F5306309
:103CF0001A464FF4004393607B681B69012B3CD14B
:103D000079687A6A1346DB009B1A9B000B4403F523
:103D100000731A687B6A59013B6A0B4403F53063F0
:103D20001B69C3F31203D11A78687A6A1346DB0061
:103D30009B1A9B00034403F50473196079687A6A3F
:103D40001346DB009B1A9B000B4403F501731968B3
:103D500078687A6A1346DB009B1A9B00034403F5DC
:103D600000731B68194478687A6A1346DB009B1A53
:103D70009B00034403F5017319607B6ADBB21946AB
:103D8000786811F049F87B681B69012B17D17B6AB1
:103D9000002B14D179687A6A1346DB009B1A9B00CA
:103DA0000B4403F503731B68002B08D17B6818686C
:103DB0007B6803F56F731A46012104F08FFDFB69E0
:103DC00003F00803002B21D07B681B69012B11D164
:103DD0003B6A03F530639B6803F40043002B09D072
:103DE0007B6A5A013B6A134403F530631A464FF469
:103DF00000439360786810F0FDFF7B6A5A013B6ACC
:103E0000134403F530631A4608239360FB6903F0FB
:103E10001003002B08D07B6A5A013B6A134403F558
:103E200030631A4610239360FB6903F02003002BD4
:103E300008D07B6A5A013B6A134403F530631A4683
:103E4000202393607B6A01337B62BB6A5B08BB62A1
:103E5000BB6A002B7FF41CAF7B681B68184604F01C
:103E60006DFC034603F48023B3F5802F40F0C68039
:103E70007B681B68184604F08EFCB86200237B62E6
:103E8000B8E000BF00C2EB0BBB6A03F00103002BDC
:103E900000F0AA807B681B687A6AD2B21146184685
:103EA00004F0ADFCF861FB6903F00103002B5AD06C
:103EB00001227B6A02FA03F3BB613B6A03F50063EC
:103EC00019463B6A03F500635A6BBB69DB43134039
:103ED0004B637B6A5A013B6A134403F510631A462D
:103EE000012393607B681B69012B1BD179687A6A77
:103EF0001346DB009B1A9B000B4444331968786817
:103F00007A6A1346DB009B1A9B00034440331B680C
:103F1000194478687A6A1346DB009B1A9B000344B5
:103F2000443319607B6ADBB21946786810F08FFF62
:103F30007B681B69012B16D17B6A002B13D1796832
:103F40007A6A1346DB009B1A9B000B444C331B68B8
:103F5000002B08D17B6818687B6803F56F731A46DD
:103F6000012104F0BBFCFB6903F00803002B08D01F
:103F70007B6A5A013B6A134403F510631A4608230F
:103F80009360FB6903F01003002B08D07B6A5A0191
:103F90003B6A134403F510631A4610239360FB69D0
:103FA00003F04003002B08D07B6A5A013B6A13449C
:103FB00003F510631A4640239360FB6903F0020384
:103FC000002B08D07B6A5A013B6A134403F5106347
:103FD0001A4602239360FB6903F08003002B03D091
:103FE000796A786800F070FD7B6A01337B62BB6A96
:103FF0005B08BB62BB6A002B7FF446AF7B681B6823
:10400000184604F09BFB034603F00043B3F1004F56
:1040100020D13B6A03F500631A463B6A03F500634F
:104020005B6823F0010353607B6893F8EC33012B4A
:1040300008D17B68002283F8EC230021786811F016
:1040400053FA02E0786810F07BFF7B681B684FF042
:1040500000425A617B681B68184604F06FFB0346F8
:1040600003F40063B3F5006F0FD13B6A03F50063FF
:104070009B6803F00103012B02D1786810F038FF30
:104080007B681B684FF400625A617B681B681846A6
:1040900004F054FB034603F00063B3F1006F1ED13C
:1040A0007B681B684FF000625A617B6893F8EC33C1
:1040B000002B11D17B68012283F8EC237B681B68FD
:1040C0005B6D9B0803F00F027B68C3F8F0230121AE
:1040D000786811F009FA02E0786810F009FF7B684F
:1040E0001B68184604F02AFB034603F48053B3F51B
:1040F000805F40F0B0803B6A03F500631A463B6A7C
:1041000003F500635B6823F0010353607B681B6861
:104110001021184603F044FC0023FB6236E0FB6AE2
:104120005A013B6A134403F510631A46FF23936058
:10413000FB6A5A013B6A134403F510631946FB6A94
:104140005A013B6A134403F510631B6823F4001300
:104150000B60FB6A5A013B6A134403F530631A464D
:10416000FF239360FB6A5A013B6A134403F53063F3
:104170001946FB6A5A013B6A134403F530631B6816
:1041800023F400130B60FB6A0133FB627B685A68FF
:10419000FB6A9A42C3D83B6A03F500631A464FF0A4
:1041A000FF3393613B6A03F500631A463B6A03F5EC
:1041B0000063DB6943F00113D3617B681B6B002B49
:1041C00018D03B6A03F500631A463B6A03F50063A7
:1041D000D3F8843043F00B03C2F884303B6A03F514
:1041E00000631A463B6A03F500635B6C43F00B0304
:1041F000536415E03B6A03F500631A463B6A03F516
:1042000000635B6943F02B0353613B6A03F5006372
:104210001A463B6A03F500631B6943F00B03136105
:104220003B6A03F500631A463B6A03F500631B68AB
:1042300023F4FE6313607B6818687B681B69D9B23E
:104240007B6803F56F731A4604F048FB7B681B68B4
:104250004FF480525A617B681B68184604F06EFA6E
:10426000034603F40053B3F5005F40F0D7807B684A
:104270001B68184604F0FCFA7B681B687A681268B1
:10428000D26822F47052DA607B681B68184603F02B
:10429000E7FB0346002B0FD17B680022DA607B68C6
:1042A0004FF400725A617B681B687A681268D268A2
:1042B00042F41052DA60A9E07B680322DA607B687E
:1042C00040225A6101F066F9F860FB68794A93422E
:1042D0000CD9FB68784A934208D87B681B687A68D7
:1042E0001268D26842F47052DA608FE0FB68724A5A
:1042F00093420CD9FB68714A934208D87B681B68CB
:104300007A681268D26842F46052DA607EE0FB6834
:104310006A4A93420CD9FB68694A934208D87B6881
:104320001B687A681268D26842F45052DA606DE015
:10433000FB68634A93420CD9FB68624A934208D8EF
:104340007B681B687A681268D26842F44052DA606F
:104350005CE0FB685B4A93420CD9FB685A4A934283
:1043600008D87B681B687A681268D26842F43052B9
:10437000DA604BE0FB68544A93420CD9FB68534A1D
:10438000934208D87B681B687A681268D26842F446
:104390002052DA603AE0FB684C4A93420CD9FB6841
:1043A0004B4A934208D87B681B687A681268D268C7
:1043B00042F41052DA6029E0FB68454A93420CD976
:1043C000FB68444A934208D87B681B687A68126885
:1043D000D26842F40052DA6018E0FB683D4A93422A
:1043E0000CD9FB683C4A934208D87B681B687A6802
:1043F0001268D26842F4E052DA6007E07B681B681A
:104400007A681268D26842F4C052DA60786810F0B4
:1044100046FD7B681B684FF400525A617B681B683D
:10442000184604F08BF9034603F01003102B74D1E7
:104430007B681B687A681268926922F010029A61A0
:104440003B6A1B6A7B617B6903F00F021346DB004A
:104450009B1A9B0003F5FC737A6813443B617B69EC
:104460005B0C03F00F03022B38D17A6947F6F07327
:104470001340002B49D03B69D9687B691B099BB26B
:10448000C3F30A039BB21A46386A03F0FBFF3B6989
:10449000DA687B691B09C3F30A031A443B69DA60D3
:1044A0003B699A697B691B09C3F30A031A443B6998
:1044B0009A612AE0BFACD800BFE1E400FF23F4001A
:1044C0007F7306019F491A01FF2C31013FA44C0163
:1044D000FF356E011FABA601FF47E8017B695B0C4E
:1044E00003F00F03062B10D17B6803F56F730822CE
:1044F0001946386A03F0C6FF3B699A697B691B0954
:10450000C3F30A031A443B699A617B681B687A68A3
:104510001268926942F010029A617B681B68184623
:1045200004F00CF9034603F00803082B06D1786861
:1045300010F0A7FC7B681B6808225A617B681B6827
:10454000184604F0FBF8034603F48013B3F5801F0C
:104550000AD17B6ADBB21946786810F011FD7B68DE
:104560001B684FF480125A617B681B68184604F080
:10457000E5F8034603F40013B3F5001F0AD17B6A84
:10458000DBB21946786810F0E9FC7B681B684FF4D1
:1045900000125A617B681B68184604F0CFF8034686
:1045A00003F08043B3F1804F07D1786810F0FAFC34
:1045B0007B681B684FF080425A617B681B68184615
:1045C00004F0BCF8034603F00403042B15D17B6808
:1045D0001B685B687B617B6903F00403002B02D0DE
:1045E000786810F0EDFC7B681B687A681268516887
:1045F0007A690A435A6000E000BF3037BD4680BD8B
:1046000080B582B000AF78600B46FB707B6893F892
:10461000B833012B01D102230FE07B68012283F81C
:10462000B8237B681B68FA781146184604F032F804
:104630007B68002283F8B823002318460837BD465C
:1046400080BD80B584B000AF7860084611461A4638
:104650000346FB700B463B801346BB700023FB7286
:1046600097F90330002B0BDAFB7803F07F02134637
:10467000DB009B1A9B0038337A681344FB600BE025
:10468000FB7803F07F021346DB009B1A9B0003F5C7
:10469000FC737A681344FB60FB7803F07F03DAB2A3
:1046A000FB681A7097F90330DBB2DB09DBB21A46FC
:1046B000FB685A703A88FB689A60FB68BA78DA70CF
:1046C000FB685B78002B04D0FB681B789AB2FB6810
:1046D000DA80BB78022B02D1FB6800221A717B685A
:1046E00093F8B833012B01D102230EE07B6801223D
:1046F00083F8B8237B681B68F968184603F0E6F96D
:104700007B68002283F8B823FB7A18461037BD4631
:1047100080BD80B584B000AF78600B46FB7097F920
:104720000330002B0BDAFB7803F07F021346DB002B
:104730009B1A9B0038337A681344FB600BE0FB78CC
:1047400003F07F021346DB009B1A9B0003F5FC730A
:104750007A681344FB60FB7803F07F03DAB2FB68EE
:104760001A7097F90330DBB2DB09DBB21A46FB683B
:104770005A707B6893F8B833012B01D102230EE005
:104780007B68012283F8B8237B681B68F9681846A8
:1047900003F024FA7B68002283F8B823002318462C
:1047A0001037BD4680BD80B586B000AFF8607A6036
:1047B0003B600B46FB72FB7A03F07F021346DB0083
:1047C0009B1A9B0003F5FC73FA6813447B617B69B9
:1047D0007A68DA607B693A685A617B6900229A617B
:1047E0007B6900225A70FB7A03F07F03DAB27B699F
:1047F0001A70FB681B69012B02D17A687B691A6108
:10480000FB7A03F07F03002B09D1FB681868FB6873
:104810001B69DBB21A46796903F0A0FC08E0FB686B
:104820001868FB681B69DBB21A46796903F052FA13
:10483000002318461837BD4680BD80B483B000AF52
:1048400078600B46FB70FB7803F00F027968134623
:10485000DB009B1A9B000B4403F504731B689BB29F
:1048600018460C37BD465DF8047B704780B586B0AE
:1048700000AFF8607A603B600B46FB72FB7A03F096
:104880007F021346DB009B1A9B003833FA681344FF
:104890007B617B697A68DA607B693A685A617B6917
:1048A00000229A617B6901225A70FB7A03F07F0330
:1048B000DAB27B691A70FB681B69012B02D17A6836
:1048C0007B691A61FB7A03F07F03002B09D1FB6837
:1048D0001868FB681B69DBB21A46796903F03EFC75
:1048E00008E0FB681868FB681B69DBB21A46796947
:1048F00003F0F0F9002318461837BD4680BD80B597
:1049000084B000AF78600B46FB70FB7803F00F02B9
:104910007B685B689A4201D9012350E097F9033024
:10492000002B0BDAFB7803F07F021346DB009B1AA7
:104930009B0038337A681344FB6009E0FA78134629
:10494000DB009B1A9B0003F5FC737A681344FB6041
:10495000FB6801229A70FB7803F07F03DAB2FB68F0
:104960001A7097F90330DBB2DB09DBB21A46FB6839
:104970005A707B6893F8B833012B01D102231EE0F3
:104980007B68012283F8B8237B681B68F9681846A6
:1049900003F0A2FDFB7803F07F03002B0AD17B68B4
:1049A00018687B681B69D9B27B6803F56F731A4678
:1049B00003F094FF7B68002283F8B8230023184695
:1049C0001037BD4680BD80B584B000AF78600B461F
:1049D000FB70FB7803F00F027B685B689A4201D999
:1049E000012340E097F90330002B0BDAFB7803F04A
:1049F0007F021346DB009B1A9B0038337A6813440E
:104A0000FB6009E0FA781346DB009B1A9B0003F574
:104A1000FC737A681344FB60FB6800229A70FB7891
:104A200003F07F03DAB2FB681A7097F90330DBB248
:104A3000DB09DBB21A46FB685A707B6893F8B8331F
:104A4000012B01D102230EE07B68012283F8B823F9
:104A50007B681B68F968184603F0AFFD7B6800228D
:104A600083F8B823002318461037BD4680BD80B5B3
:104A700082B000AF78600B46FB707B6893F8B83368
:104A8000012B01D102231BE07B68012283F8B823AC
:104A900097F90330002B09DA7B681A68FB7803F07A
:104AA0007F031946104602F07BFF04E07B681B6819
:104AB000184602F09BFF7B68002283F8B82300238E
:104AC00018460837BD4680BD80B58AB002AF786011
:104AD00039607B681B687B610023FB6100233B61BD
:104AE0003A681346DB009B1A9B0038337A681344FC
:104AF000FB60FB685A69FB689B69D31AFB61FB6822
:104B00009A68FB699A4202D2FB689B68FB61FB6969
:104B10000333002B00DA03339B10BB612EE0FB68EC
:104B20005A69FB689B69D31AFB61FB689A68FB6949
:104B30009A4202D2FB689B68FB61FB690333002B3E
:104B400000DA03339B10BB61FB68D9683B68DAB2BB
:104B5000FB6998B27B681B69DBB2009303467869F6
:104B600003F058FCFB68DA68FB691A44FB68DA60FA
:104B7000FB689A69FB691A44FB689A613B685A01B1
:104B80007B69134403F510639B699AB2BB699A422F
:104B900009D9FB689A69FB685B699A4203D2FB6892
:104BA0005B69002BBBD1FB69002B10DC01223B6849
:104BB00002FA03F33B617B6903F5006319467B69E5
:104BC00003F500635A6B3B69DB4313404B630023DF
:104BD00018462037BD4680BD80B485B000AF7860F0
:104BE0000B46FB7013463B800023FB730023BB6026
:104BF0007B681B685B6ABB60FB78002B07D17B6816
:104C00001B683A881104BA680A439A6228E07B68F4
:104C10001B689B6A1B0CBA681344BB600023FB73C0
:104C20000DE07B681A68FB7B40339B0013445B6894
:104C30001B0CBA681344BB60FB7B0133FB73FA7B2C
:104C4000FB78013B9A42ECDB7B681968FB78013BFF
:104C50003A881004BA68024340339B000B445A6000
:104C6000002318461437BD465DF8047B704780B4B6
:104C700083B000AF78600B467B807B681B687A88C6
:104C80005A62002318460C37BD465DF8047B704716
:104C900080B485B000AF78607B681B68FB607B6880
:104CA0000122C3F8F4237B68002283F8EC23FB681D
:104CB0009B6943F00062FB689A61FB685A6D054B83
:104CC0001343FA685365002318461437BD465DF850
:104CD000047B70470300001080B582B000AF002352
:104CE0007B60234A224B1B6C43F080531364204BA0
:104CF0001B6C03F080533B603B681E4A1D4B1B68D6
:104D000043F480331360FCF7BFFE786009E0FCF7E2
:104D1000BBFE02467B68D31AB3F57A7F01D9032321
:104D200022E0144B5B6803F48033B3F5803FEED18F
:104D3000104A104B1B6843F400331360FCF7A4FEC9
:104D4000786009E0FCF7A0FE02467B68D31AB3F551
:104D50007A7F01D9032307E0064B5B6803F4003335
:104D6000B3F5003FEED1002318460837BD4680BD9D
:104D7000003802400070004080B586B000AF786017
:104D80000023FB757B68002B01D101235CE27B686B
:104D90001B6803F00103002B00F08780964B9B6893
:104DA00003F00C03042B0CD0934B9B6803F00C0313
:104DB000082B12D1904B5B6803F48003B3F5800F8E
:104DC0000BD18D4B1B6803F40033002B6CD07B6838
:104DD0005B68002B68D1012336E27B685B68B3F522
:104DE000803F06D1844A844B1B6843F480331360B0
:104DF0002EE07B685B68002B0CD17F4A7E4B1B68E2
:104E000023F4803313607C4A7B4B1B6823F480239C
:104E100013601DE07B685B68B3F5A02F0CD1764A68
:104E2000754B1B6843F480231360734A724B1B68F5
:104E300043F4803313600BE06F4A6F4B1B6823F41D
:104E4000803313606C4A6C4B1B6823F4802313601F
:104E50007B685B68002B13D0FCF716FE386108E016
:104E6000FCF712FE02463B69D31A642B01D90323D7
:104E7000EAE1614B1B6803F40033002BF0D014E02F
:104E8000FCF702FE386108E0FCF7FEFD02463B69D4
:104E9000D31A642B01D90323D6E1574B1B6803F4C3
:104EA0000033002BF0D100E000BF7B681B6803F0EB
:104EB0000203002B69D0504B9B6803F00C03002BBE
:104EC0000BD04D4B9B6803F00C03082B1CD14A4BB5
:104ED0005B6803F48003002B16D1474B1B6803F07B
:104EE0000203002B05D07B68DB68012B01D0012376
:104EF000AAE14149404B1B6823F0F8027B681B691B
:104F0000DB0013430B6040E07B68DB68002B23D0A1
:104F1000394A394B1B6843F001031360FCF7B4FDB9
:104F2000386108E0FCF7B0FD02463B69D31A022B5A
:104F300001D9032388E1304B1B6803F00203002BE7
:104F4000F0D02D492C4B1B6823F0F8027B681B69BD
:104F5000DB0013430B6018E0274A274B1B6823F044
:104F600001031360FCF790FD386108E0FCF78CFD4D
:104F700002463B69D31A022B01D9032364E11E4B7D
:104F80001B6803F00203002BF0D17B681B6803F061
:104F90000803002B38D07B685B69002B19D0164AB8
:104FA000154B5B6F43F001035367FCF76DFD3861F0
:104FB00008E0FCF769FD02463B69D31A022B01D9D0
:104FC000032341E10C4B5B6F03F00203002BF0D095
:104FD0001AE0094A084B5B6F23F001035367FCF7A3
:104FE00053FD38610AE0FCF74FFD02463B69D31AD6
:104FF000022B03D9032327E100380240944B5B6F57
:1050000003F00203002BEED17B681B6803F004035E
:10501000002B00F0A4808E4B1B6C03F08053002B00
:105020000DD18B4A8A4B1B6C43F080531364884B21
:105030001B6C03F08053FB60FB680123FB75854B01
:105040001B6803F48073002B18D1824A814B1B68C4
:1050500043F480731360FCF717FD386108E0FCF738
:1050600013FD02463B69D31A642B01D90323EBE0FD
:10507000784B1B6803F48073002BF0D07B689B682F
:10508000012B06D1724A724B1B6F43F00103136769
:105090002DE07B689B68002B0CD16D4A6C4B1B6F1D
:1050A00023F0010313676A4A694B1B6F23F0040363
:1050B00013671CE07B689B68052B0CD1644A644B2A
:1050C0001B6F43F004031367614A614B1B6F43F08E
:1050D000010313670BE05E4A5D4B1B6F23F0010376
:1050E00013675B4A5A4B1B6F23F0040313677B68FB
:1050F0009B68002B15D0FCF7C7FC38610AE0FCF771
:10510000C3FC02463B69D31A41F28832934201D96B
:10511000032399E04E4B1B6F03F00203002BEED0EC
:1051200014E0FCF7B1FC38610AE0FCF7ADFC024684
:105130003B69D31A41F28832934201D9032383E0B9
:10514000434B1B6F03F00203002BEED1FB7D012BC1
:1051500005D13F4A3E4B1B6C23F0805313647B68A0
:105160009B69002B6FD03A4B9B6803F00C03082B14
:1051700067D07B689B69022B49D1354A344B1B6849
:1051800023F080731360FCF77FFC386108E0FCF7C4
:105190007BFC02463B69D31A022B01D9032353E05F
:1051A0002B4B1B6803F00073002BF0D128497B6860
:1051B000DA697B681B6A1A437B685B6A9B011A4346
:1051C0007B689B6A5B08013B1B041A437B68DB6AB4
:1051D0001B06134343F000534B601D4A1C4B1B68D6
:1051E00043F080731360FCF74FFC386108E0FCF774
:1051F0004BFC02463B69D31A022B01D9032323E05F
:10520000134B1B6803F00073002BF0D01BE0104A17
:105210000F4B1B6823F080731360FCF735FC38617B
:1052200008E0FCF731FC02463B69D31A022B01D996
:10523000032309E0064B1B6803F00073002BF0D139
:1052400001E0012300E0002318461837BD4680BD69
:10525000003802400070004080B584B000AF786034
:1052600039600023FB607B68002B01D10123CEE075
:10527000694B1B6803F00F023B689A4210D26649E3
:10528000654B1B6823F00F023B6813430B60624BB6
:105290001B6803F00F023B689A4201D00123B6E07D
:1052A0007B681B6803F00203002B20D07B681B681F
:1052B00003F00403002B05D0584A584B9B6843F475
:1052C000E05393607B681B6803F00803002B05D054
:1052D000524A524B9B6843F4604393604F494F4B93
:1052E0009B6823F0F0027B689B6813438B607B68AC
:1052F0001B6803F00103002B40D07B685B68012B27
:1053000007D1464B1B6803F40033002B15D1012352
:105310007DE07B685B68022B07D1404B1B6803F084
:105320000073002B09D1012371E03C4B1B6803F093
:105330000203002B01D1012369E03849374B9B68F8
:1053400023F003027B685B6813438B60FCF79CFBD4
:10535000F8600AE0FCF798FB0246FB68D31A41F2BA
:105360008832934201D9032351E02C4B9B6803F010
:105370000C027B685B689B009A42EBD1264B1B6852
:1053800003F00F023B689A4210D92349224B1B6855
:1053900023F00F023B6813430B601F4B1B6803F0A5
:1053A0000F023B689A4201D0012330E07B681B6802
:1053B00003F00403002B08D01849184B9B6823F412
:1053C000E0527B68DB6813438B607B681B6803F0EB
:1053D0000803002B09D01149104B9B6823F460424D
:1053E0007B681B69DB0013438B6000F01DF80146EE
:1053F0000A4B9B681B0903F00F03094AD35C21FA8F
:1054000003F3084A136000200FF0EEFB0023184658
:105410001037BD4680BD00BF003C0240003802404E
:105420003CF00208C40000202DE9F04F87B000AF27
:105430000022FA6000227A610022BA6000223A61FA
:10544000514A926802F00C02042A07D0082A08D0B8
:10545000002A40F090804D4B3B618FE04C4B3B610C
:105460008CE0494A526802F03F02FA60464A5268AC
:1054700002F48002002A23D0434B5B689B094FF063
:10548000000440F2FF114FF0000203EA010304EAB6
:1054900002043F4A02FB04F1002202FB03F20A4429
:1054A0003B49A3FB010153181946FB684FF0000468
:1054B0001A462346FBF74EFB03460C467B614CE045
:1054C000314A5268920911464FF0000240F2FF152E
:1054D0004FF0000605EA010506EA020629463246B3
:1054E0004FEA421B4BEAD16B4FEA411A51465A46EA
:1054F000AA46B34655465E464D1B62EB0606294654
:105500003246940144EA91648B015B1A64EB020415
:105510004FEAC40949EA53794FEAC30843464C4667
:1055200055465E46ED1846EB04062B463446A2026D
:105530007A607A6842EA93527A609B023B6097E80D
:10554000180018462146FB684FF000041A4623460F
:10555000FBF700FB03460C467B610B4B5B681B0CA7
:1055600003F0030301335B00BB607A69BB68B2FBE5
:10557000F3F33B6102E0054B3B6100BF3B6918461A
:105580001C37BD46BDE8F08F003802400024F4000F
:1055900040787D0180B400AF034B1B681846BD46C0
:1055A0005DF8047B704700BFC400002080B500AFE9
:1055B000FFF7F0FF0146054B9B689B0A03F00703CA
:1055C000034AD35C21FA03F3184680BD0038024039
:1055D0004CF0020880B500AFFFF7DCFF0146054B39
:1055E0009B685B0B03F00703034AD35C21FA03F3C8
:1055F000184680BD003802404CF0020880B483B0E9
:1056000000AF786039607B680F221A60124B9B688C
:1056100003F003027B685A600F4B9B6803F0F002B3
:105620007B689A600C4B9B6803F4E0527B68DA60FD
:10563000094B9B68DB0803F4E0527B681A61074B57
:105640001B6803F00F023B681A6000BF0C37BD46B1
:105650005DF8047B704700BF00380240003C024008
:1056600080B588B000AF786000237B6100233B6188
:105670000023FB600023FB610023BB617B681B6888
:1056800003F00103002B12D0694A694B9B6823F495
:10569000000393606649664B9A687B685B6B1343B3
:1056A0008B607B685B6B002B01D10123FB617B6806
:1056B0001B6803F40023002B17D05D495C4BD3F823
:1056C0008C3023F440127B68DB6B1343C1F88C30C1
:1056D0007B68DB6BB3F5801F01D10123FB617B6825
:1056E000DB6B002B01D10123BB617B681B6803F4DA
:1056F0008013002B17D04E494D4BD3F88C3023F438
:1057000040027B681B6C1343C1F88C307B681B6CB8
:10571000B3F5800F01D10123FB617B681B6C002B6B
:1057200001D10123BB617B681B6803F08073002BF0
:1057300001D00123FB617B681B6803F02003002B71
:1057400000F08B803A4A3A4B1B6C43F08053136451
:10575000374B1B6C03F08053BB60BB68354A354B3D
:105760001B6843F480731360FCF78EF9786108E0DE
:10577000FCF78AF902467B69D31A642B01D903230B
:1057800055E32C4B1B6803F48073002BF0D0284B9F
:105790001B6F03F440733B613B69002B35D07B6882
:1057A0001B6B03F440723B699A422ED0204B1B6F57
:1057B00023F440733B611E4A1D4B1B6F43F480333F
:1057C00013671B4A1A4B1B6F23F480331367184A65
:1057D0003B691367164B1B6F03F00103002B14D0BA
:1057E000FCF752F978610AE0FCF74EF902467B6952
:1057F000D31A41F28832934201D9032317E30C4BA9
:105800001B6F03F00203002BEED07B681B6B03F4CD
:105810004073B3F5407F11D10548054B9B6823F4D5
:10582000F8127B68196B044B0B40134383600BE049
:105830000038024000700040FFFCFF0FB04AB04B40
:105840009B6823F4F8139360AD49AD4B1A6F7B68E6
:105850001B6BC3F30B0313430B677B681B6803F0DD
:105860001003002B10D0A64AA54BD3F88C3023F0A0
:105870008073C2F88C30A249A14BD3F88C207B688E
:105880009B6B1343C1F88C307B681B6803F4804327
:10589000002B0AD09A499A4BD3F8903023F4403227
:1058A0007B685B6E1343C1F890307B681B6803F420
:1058B0000043002B0AD09249914BD3F8903023F447
:1058C00040227B689B6E1343C1F890307B681B6855
:1058D00003F48033002B0AD08949894BD3F89030E8
:1058E00023F440127B68DB6E1343C1F890307B6871
:1058F0001B6803F40033002B0AD08149804BD3F896
:10590000903023F440027B681B6F1343C1F8903042
:105910007B681B6803F04003002B0AD07849784B62
:10592000D3F8903023F003027B685B6C1343C1F81B
:1059300090307B681B6803F08003002B0AD070490D
:105940006F4BD3F8903023F00C027B689B6C1343B1
:10595000C1F890307B681B6803F48073002B0AD079
:105960006749674BD3F8903023F030027B68DB6CDB
:105970001343C1F890307B681B6803F40073002B5D
:105980000AD05F495E4BD3F8903023F0C0027B68A9
:105990001B6D1343C1F890307B681B6803F4806370
:1059A000002B0AD05649564BD3F8903023F440725E
:1059B0007B685B6D1343C1F890307B681B6803F410
:1059C0000063002B0AD04E494D4BD3F8903023F49E
:1059D00040627B689B6D1343C1F890307B681B6805
:1059E00003F48053002B0AD04549454BD3F890303F
:1059F00023F440527B68DB6D1343C1F890307B6821
:105A00001B6803F40053002B0AD03D493C4BD3F8EC
:105A1000903023F440427B681B6E1343C1F89030F2
:105A20007B681B6803F48003002B0AD03449344B95
:105A3000D3F8903023F080627B689B6F1343C1F8EA
:105A400090307B681B6803F40013002B11D02C49A5
:105A50002B4BD3F8903023F000627B68DB6F13434D
:105A6000C1F890307B68DB6FB3F1006F01D1012387
:105A7000BB617B681B6803F00803002B01D0012386
:105A8000BB617B681B6803F48023002B0AD01C4990
:105A90001B4BD3F8903023F040727B685B6F13434D
:105AA000C1F890307B681B6803F40003002B0BD017
:105AB0001349134BD3F8903023F080527B68D3F80E
:105AC00080301343C1F89030FB69012B05D07B680F
:105AD0001B68B3F1007F40F0D880094A084B1B686F
