:020000040800F2
:1000000000000520D59300082594000825940008D9
:10001000259400082594000825940008000000009D
:10002000000000000000000000000000B1470008D0
:10003000259400080000000051480008D18E0008F7
:1000400025940008259400082594000825940008AC
:10005000259400082594000825940008259400089C
:10006000259400082594000825940008259400088C
:10007000259400082594000825940008259400087C
:10008000259400082594000825940008259400086C
:10009000259400082594000825940008259400085C
:1000A000259400082594000825940008259400084C
:1000B000D98E00082594000825940008259400088E
:1000C000259400082594000825940008259400082C
:1000D000259400082594000825940008259400081C
:1000E000259400082594000825940008259400080C
:1000F00025940008259400082594000825940008FC
:1001000025940008259400082594000825940008EB
:1001100025940008259400082594000825940008DB
:1001200025940008259400082594000825940008CB
:1001300025940008259400082594000825940008BB
:10014000259400082594000825940008E98E0008ED
:10015000259400082594000825940008259400089B
:10016000259400082594000825940008259400088B
:10017000259400082594000825940008000000003C
:10018000259400082594000825940008259400086B
:10019000259400082594000825940008259400085B
:1001A000259400082594000825940008259400084B
:1001B000259400082594000825940008259400083B
:0801C0002594000825940008B5
:1001D00010B5054C237833B9044B13B10448AFF381
:1001E00000800123237010BDC40400200000000023
:1001F00030F2010808B5034B1BB103490348AFF3C4
:10020000008008BD00000000C804002030F2010892
:10021000034613F8012B002AFBD1181A0138704746
:1002200001F0FF01102A2BDB10F0070F08D010F8A7
:10023000013B013A8B422DD010F0070F42B3F6D1AB
:10024000F0B441EA012141EA014122F007047FF0C4
:1002500000070023F0E80256083C85EA010586EA1B
:10026000010685FA47F5A3FA87F586FA47F6A5FA57
:1002700087F68EB9EED1F0BC01F0FF0102F0070263
:1002800032B110F8013B013A83EA010313B1F8D10E
:100290000020704701387047002D06BF35460338EF
:1002A000073815F0010F07D1013015F4807F02BF28
:1002B000013015F4C03F0130F0BC0138704700BF79
:1002C00053B94AB9002908BF00281CBF4FF0FF31BD
:1002D0004FF0FF3000F07AB9ADF1080C6DE904CEB3
:1002E00000F006F8DDF804E0DDE9022304B0704711
:1002F0002DE9F0478C460D460446089E002B51D14F
:100300008A4217466DD9B2FA82FEBEF1000F0BD0B9
:10031000CEF1200C01FA0EF520FA0CFC02FA0EF7D1
:100320004CEA050C00FA0EF44FEA174A250CBCFB08
:10033000FAF81FFA87F90AFB18CC45EA0C4508FBC6
:1003400009F3AB420AD9ED1908F1FF3280F023819D
:10035000AB4240F22081A8F102083D44ED1AA4B25C
:10036000B5FBFAF00AFB105544EA054400FB09F915
:10037000A14509D9E41900F1FF3380F00A81A145B4
:1003800040F2078102383C44A4EB090440EA0840EB
:100390000021002E61D024FA0EF400233460736033
:1003A000BDE8F0878B4207D9002E54D0002186E8A3
:1003B00021000846BDE8F087B3FA83F1002940F038
:1003C0008E80AB4202D3824200F2FA80841A65EB3F
:1003D00003050120AC46002E3FD086E81010BDE892
:1003E000F08712B90127B7FBF2F7B7FA87FEBEF123
:1003F000000F34D1EB1B3A0C1FFA87FC0121B3FB31
:10040000F2F8250C02FB183345EA03450CFB08F310
:10041000AB4207D9ED1908F1FF3002D2AB4200F22E
:10042000D1808046ED1AA3B2B5FBF2F002FB105565
:1004300043EA05440CFB00FCA44507D9E41900F18C
:10044000FF3302D2A44500F2B8801846A4EB0C0496
:1004500040EA08409DE731463046BDE8F087CEF1DE
:10046000200405FA0EF307FA0EF720FA04F83A0C06
:1004700025FA04F448EA0308B4FBF2F14FEA184500
:1004800002FB11441FFA87FC45EA044501FB0CF30B
:10049000AB4200FA0EF409D9ED1901F1FF3080F0FA
:1004A0008A80AB4240F2878002393D44EB1A1FFA42
:1004B00088F5B3FBF2F002FB103345EA034500FB7D
:1004C0000CF3AB4207D9ED1900F1FF386FD2AB4204
:1004D0006DD902383D44EB1A40EA01418FE7C1F182
:1004E000200722FA07F88B4005FA01F448EA0303D3
:1004F00020FA07FE4FEA134CFD404EEA040EB5FB0E
:10050000FCF94FEA1E440CFB19551FFA83F844EA24
:10051000054509FB08F4AC4202FA01F200FA01FABF
:1005200008D9ED1809F1FF3043D2AC4241D9A9F105
:1005300002091D442D1B1FFA8EFEB5FBFCF00CFBBF
:1005400010554EEA054400FB08F8A04507D9E41809
:1005500000F1FF3529D2A04527D902381C4440EAD2
:100560000940A4EB0804A0FB02894C45C6464D4651
:1005700015D312D056B1BAEB0E0364EB050404FA9E
:1005800007F7CB401F43CC40376074600021BDE8C3
:10059000F0871846F8E69046E0E6C245EAD2B8EBA6
:1005A000020E69EB03050138E4E72846D7E7404629
:1005B00091E78146BEE7014678E702383C4445E7CB
:1005C000084608E7A8F102083D442BE7704700BF42
:1005D00008B5032000F0C6F9002008F03DFC08F043
:1005E0006DFB002008BD0000034A1168034B1B7817
:1005F0000B441360704700BF54B00220000000207D
:10060000014B1868704700BF54B0022038B504464B
:10061000FFF7F6FF0546B4F1FF3F02D0044B1B780D
:100620001C44FFF7EDFF401B8442FAD838BD00BFE1
:1006300000000020494B5A6822F440325A605A6840
:1006400041680A435A600268536823F48073536018
:1006500002685368016943EA0123536002685368E2
:1006600023F0407353600268536881680B43536002
:100670000268936823F40063936002689368C1681A
:100680000B439360826A364B9A4249D00268936862
:1006900023F07063936002689368816A0B439360F0
:1006A0000268936823F04053936002689368C16ABC
:1006B0000B4393600268936823F00203936002681F
:1006C0009368816943EA41039360036A002B32D146
:1006D0000268536823F4006353600268D36A23F40A
:1006E0007003D3620168CB6AC269013A43EA0253DC
:1006F000CB620268936823F4007393600268936886
:10070000016B43EA412393600268936823F480639A
:10071000936002689368416943EA8123936070475C
:100720000268936823F0706393600268936823F013
:1007300040539360BEE70268536843F4006353601C
:100740000268536823F46043536001684B68426A4F
:10075000013A43EA42334B60BFE700BF0023014048
:100760000100000F20B310B50446036C43B1236CA5
:1007700013F0100F0AD00120002384F83C3010BD84
:10078000436480F83C3008F0C9FAF0E7226C094B6A
:10079000134043F0020323642046FFF74BFF002081
:1007A0006064236C23F0030343F001032364E3E755
:1007B00001207047FDEEFFFF30B482B000230193AB
:1007C00090F83C30012B00F0C080012380F83C30D1
:1007D0000B68092B22D90568EA689BB203EB430337
:1007E0001E3B072404FA03F322EA0303EB600B68C1
:1007F000574A93420BD00568EA688C689BB203EBBA
:1008000043031E3B04FA03F31343EB601BE002684F
:10081000D3688C6843EA0463D36014E005682A69EE
:100820009BB203EB4303072404FA03F322EA030316
:100830002B6105682A698C680B8803EB430304FA73
:1008400003F313432B614B68062B24D805686A6BAE
:1008500003EB8303053B1F2404FA03F322EA03039B
:100860006B6305686A6B4B6803EB8303053B0C887D
:1008700004FA03F313436B630268364B9A423AD08F
:100880000268344B9A423FD0002380F83C3018462F
:1008900002B030BC70470C2B16D805682A6B03EBEE
:1008A0008303233B1F2404FA03F322EA03032B638D
:1008B00005682A6B4B6803EB8303233B0C8804FA1F
:1008C00003F313432B63D7E70568EA6A03EB83035B
:1008D000413B1F2404FA03F322EA0303EB62056899
:1008E000EA6A4B6803EB8303413B0C8804FA03F389
:1008F0001343EB62C0E70B68122BC1D1164A536851
:1009000043F480035360BBE70B68114A112B18BFF7
:100910009342B9D1104A536843F4000353600A6804
:100920000B4B9A42B0D10D4B1B680D4AA2FB03231F
:100930009B0C03EB83035A00019202E0019B013BF5
:100940000193019B002BF9D19EE70220A0E700BF95
:10095000120000100020014000230140B0000020E0
:1009600083DE1B430649CB6823F4E0631B041B0CA6
:10097000000200F4E0600343024A1A43CA60704771
:1009800000ED00E00000FA0530B4144BDB68C3F35F
:100990000223C3F10704042C28BF04241D1D062DC7
:1009A00013D9033B012505FA04F4013C2140994089
:1009B00005FA03F3013B13401943002807DB090143
:1009C000C9B2074B195430BC70470023EAE700F066
:1009D0000F000901C9B2034B1954F4E700ED00E020
:1009E00000E400E014ED00E0420900F01F000123E4
:1009F00003FA00F0014B43F82200704700E100E0E9
:100A00000138B0F1807F0AD2064B5860F021064AC7
:100A100082F823100020986007221A607047012096
:100A2000704700BF10E000E000ED00E0042805D0B2
:100A3000054A136823F0040313607047024A1368E1
:100A400043F004031360704710E000E0002838D042
:100A500010B50446437F1BB30223637723791BBB86
:100A60002368194A5A612268936823F01803936037
:100A7000637913BB23684FF0FF321A6122689368D1
:100A800023F0600361690B4393602268936823F04D
:100A90008003A1690B43936001236377002010BD9D
:100AA000037708F069F9D7E7E268A168204600F00B
:100AB0000DF80028DCD0012010BD236822691A61DE
:100AC000DCE70120704700BFB71DC10410B41F232D
:100AD00000E0234621FA03F414F0010F03D15C1E59
:100AE000002BF6D12346102A13D0182A0DD0082A3D
:100AF00013D00368596101688B6823F018031A4307
:100B00008A6000205DF8044B7047062BF1D9012064
:100B1000F8E7072BEDD90120F4E70F2BE9D90120E5
:100B2000F0E7000038B310B5044690F83930EBB167
:100B3000022384F839302268136823F44033616853
:100B40000B4313602268536B23F00703A1680B4328
:100B500053632268116C094B0B40E1680B4313642B
:100B60000020E063012384F8393010BD80F838306C
:100B700006F01EFEDCE70120704700BF00C0FFFF4B
:100B800090F83830012B59D030B4012380F8383038
:100B9000022380F8393000EB0113DA698B1C1B014A
:100BA000C35842EA0343093A012A1ED98A1C00EBC2
:100BB0000212526843EA026341BB0468656A204A34
:100BC0002A4013436362026800EB01139C6994613D
:100BD000DB69093B012B10D9012380F83930002350
:100BE00080F83830184630BC70478A1C00EB02127F
:100BF000526802F07F421343DEE70268023100EBE5
:100C000001114B6823F07F439362E5E70468E569CF
:100C10000B4A2A401343E361026800EB01139C690D
:100C20001461DB69093B012BD6D80268023100EB65
:100C300001114B6823F07F431362CDE70220704718
:100C4000F0FFFC00F0B583B0002437E0092600E097
:100C5000002606FA0EF6324302336C4E46F8232085
:100C60006B4B1A68EB4302EA03064F6817F4803FA8
:100C700001D045EA0206664A1660526803EA020697
:100C80004F6817F4003F01D045EA0206604A5660FB
:100C9000926803EA02064F6817F4801F01D045EA04
:100CA00002065B4A9660D26813404E6816F4001F35
:100CB00001D045EA0203564AD36001340F2C00F2FA
:100CC000A3800123A3400A6803EA0205AB42F4D1E2
:100CD0004A68122A18BF022A12D14FEAD40E0EF126
:100CE000080E50F82E2004F00706B6000F27B74074
:100CF00022EA07020F6907FA06F6324340F82E206F
:100D000006684FEA440E032202FA0EF2D24316405E
:100D10004F6807F0030707FA0EF73E4306604E6878
:100D2000771E112E18BF012F01D9122E0FD1866800
:100D30001640CF6807FA0EF73E438660466826EAFB
:100D400003034E68C6F30016A64033434360C368EE
:100D50001A408B6803FA0EF31A43C2604B6813F013
:100D6000805FAAD02B4B5A6C42F480425A645B6C71
:100D700003F480430193019BA3089E1C234A52F86D
:100D8000262004F003064FEA860E0F2606FA0EF61A
:100D900022EA0602204FB8423FF45AAF1F4EB0423B
:100DA00022D006F58066B04220D006F58066B042BB
:100DB0001ED006F58066B0421CD006F58066B042B3
:100DC0001AD006F58066B04218D006F58066B042AB
:100DD00016D006F58066B04214D006F58066B042A3
:100DE0003FF434AF0A2634E7012632E7022630E723
:100DF00003262EE704262CE705262AE7062628E701
:100E0000072626E7082624E703B0F0BD0038014096
:100E1000003C014000380240000002400004024053
:100E200000230F2B00F29280F0B50AE0092600E0C3
:100E3000002606FA02F294426FD001330F2B00F223
:100E4000848001229A4002EA0105AA42F5D106688F
:100E50005F000324BC40E443264006604FEAD30E03
:100E60000EF1080E50F82EC003F00706B6000F274B
:100E700007FA06F62CEA060640F82E608668264039
:100E80008660466826EA02024260C2681440C46076
:100E90004FEA930E0EF102042D4A52F8244003F05B
:100EA0000302920097403C402A4EB042C0D006F563
:100EB0008066B04221D006F58066B0421FD006F5AC
:100EC0008066B0421DD006F58066B0421BD006F5A4
:100ED0008066B04219D006F58066B04217D006F59C
:100EE0008066B04215D006F58066B04213D006F594
:100EF0008066B0429AD00A269BE7012699E702262F
:100F000097E7032695E7042693E7052691E706264B
:100F10008FE707268DE708268BE70D4E0EF10202BC
:100F200056F8224024EA070746F822700A4C266841
:100F3000EA4316402660656815406560A56815405F
:100F4000A560E5682A40E26077E7F0BD704700BF22
:100F50000038014000000240003C014012B9090481
:100F60008161704781617047F0B54D680468E3683E
:100F7000C3F30B431D44D2011444D4F8883003F466
:100F80007043C4F88830066894190B68F668C6F395
:100F90000B463344013343EA0543C4F88830CD6837
:100FA0000468E368C3F30A031D441444D4F88C3086
:100FB00003F47043C4F88C30066894198B68F668A3
:100FC000C6F30A063344013343EA0543C4F88C30C0
:100FD00003681344D3F8944024F00704C3F8944002
:100FE000036813440C69C3F8944091F831E091F818
:100FF00032708E6905681544D5F89C300024C5F818
:101000009C400568154491F8303043EA0E2343EACA
:10101000074343EA0663C5F89C3003681344D3F8DA
:10102000985025F0FF05C3F89850036813444D69A4
:10103000C3F8985003681344D3F8A0602C4D354092
:10104000C3F8A05003681344CD690E6A3543C3F852
:10105000A05003681344D3F8AC50C3F8AC40036805
:1010600013444C6AC3F8AC400B696BB1012B39D007
:10107000022B18BF042B37D0032B37D0072B01D0FE
:10108000012602E0022600E0042604681444D4F895
:10109000B03003F0E023C4F8B030046814448D6A23
:1010A00005FB06F54B680F68DB1B03FB06F30333F8
:1010B00043EA0543C4F8B03003681344D3F8B4508E
:1010C0000C4C2C40C3F8B44003681344C96AC3F8FD
:1010D000B41003681A44D2F8843043F00103C2F814
:1010E0008430F0BD0326D0E70226CEE70226CCE707
:1010F000F8F8FFFF00F8FFFF002877D038B5044666
:1011000090F8A130002B6CD0022384F8A130226823
:10111000936923F07043936121688A696368A068CA
:101120000343E06803432069034313438B61216851
:101130008A682F4B1A408A60656920688268A169B5
:1011400041EA05410A4382602168CA681A40CA60C0
:10115000E5692068C268216A41EA05410A43C26024
:1011600021680A691A400A61656A20680269A16AF1
:1011700041EA05410A43026121684A6913404B6113
:10118000E06A21684B69226B42EA004213434B61DB
:1011900094F8350094F836301B042168CA6A02F0CE
:1011A0007F42CA622168CA6A43EA002394F8340085
:1011B00003431343CB622268536B43F0040353632E
:1011C0002268536B43F0020353632268936943F030
:1011D000010393610020C4F8A400012384F8A13026
:1011E00038BD80F8A03006F053FA8DE70120704733
:1011F00000F800F010B5044606F0A4FA0020C4F888
:10120000A40084F8A10084F8A00010BD90F8A030DC
:10121000012B01D1022070472DE9F04196460F467F
:1012200006464FF0010880F8A080022380F8A13024
:10123000342404FB020438340D460FCD0FC40FCD07
:101240000FC40FCD0FC42B68236072463946304659
:10125000FFF78AFE3368C3F8248086F8A180002057
:1012600086F8A000BDE8F08190F8A030012B1DD0D9
:1012700030B4012480F8A040022380F8A130036834
:10128000D2011344D3F8905005F07F45C3F8905035
:1012900003681A44C2F8901003685C6280F8A140A9
:1012A000002380F8A030184630BC704702207047F9
:1012B000F0B490F8A040012C36D0012480F8A04072
:1012C000022480F8A140002612E006EB06140F6805
:1012D000FDB245EA046407F47F452C4307F47F0719
:1012E0003C430431056805EBC315C5F8C44001361D
:1012F000964210D2342404FB0304A46C062CE4D0E0
:101300000D68ECB244EA066405F47F473C4305F4FB
:101310007F052C43E5E7012380F8A130002380F806
:10132000A0301846F0BC70470220FBE790F8A030D0
:10133000012B17D0012280F8A020022380F8A130D1
:10134000036803EBC111D1F8843043F00203C1F804
:10135000843003685A6280F8A120002380F8A0300E
:10136000184670470220704790F8A030012B17D024
:10137000012280F8A020022380F8A130036803EB4B
:10138000C111D1F8843023F00203C1F8843003681E
:101390005A6280F8A120002380F8A03018467047D8
:1013A00002207047F8B590F8A040012C01D102202E
:1013B000F8BD15460446012680F8A060022280F898
:1013C000A120342000FB03F000F1380720448163A2
:1013D000026E1144C1630564426E154445641A46A9
:1013E000E1192046FFF7C0FD23685E6284F8A16022
:1013F000002084F8A000F8BD38B590F8A030012B8B
:1014000001D1022038BD0446012580F8A0500223F6
:1014100080F8A130342303FB02F303F138002344A6
:10142000D96421182046FFF79FFD23685D6284F888
:10143000A150002084F8A00038BD38B590F8A03045
:10144000012B01D1022038BD0446012580F8A050AF
:10145000022380F8A130342303FB02F303F13800A8
:101460002344D96521182046FFF77EFD23685D627D
:1014700084F8A150002084F8A00038BD2DE9F04385
:1014800083B007460D46D0F80080CA00521A930078
:101490000344DE6C1A6DB61A1B6C9E4200D91E46C0
:1014A00016F1030902D44FEAA90919E009F1030969
:1014B000F9E716F103092FD44FEAA909EB005B1BEA
:1014C0009C003C44616C3B7C0093B3B2EAB2404662
:1014D00002F08EFD636C33446364236D33442365F3
:1014E000414608EB451303F510639B699BB2994590
:1014F00015D2EA00521B93003B441A6DDB6C9A42F2
:101500000DD263B19E1AC5EBC50293003B441B6C20
:101510009E42CED91E46CCE709F10309CCE7002E46
:1015200003DD002003B0BDE8F0830123AB40D1F818
:10153000345825EA0305C1F83458F2E7002872D080
:10154000F0B58BB00446032380F8B93307F018FDDB
:10155000206802F0F1FA254655F8107B6E460FCD53
:101560000FC60FCD0FC695E8030086E80300231DC4
:101570000ECB384602F09CFA0021206802F0E2FA15
:10158000002210E0D100891A8B002344012183F846
:10159000391083F83820DA87002183F83B1019646A
:1015A0005964D96401320E2AECD9002218E0D10026
:1015B000891A8B002344002183F8F91183F8F8215C
:1015C000DA8783F8FB11C3F80012C3F80412C3F8DA
:1015D0000C12236802F1400003EB800359600132D2
:1015E0000E2AE4D9254655F8107B6E460FCD0FC65E
:1015F0000FCD0FC695E8030086E80300231D0ECB30
:10160000384602F0E3FA012384F8B933636A012B08
:1016100005D0206802F0C7FE00200BB0F0BD2046C8
:1016200000F0C6FCF5E70120704790F8B833012BB5
:1016300001D10220704710B50446012380F8B83369
:10164000006802F0A4FE206802F070FA002084F81E
:10165000B80310BD2DE9F04704460668304602F095
:10166000D9FE08B1BDE8F0870746206802F0A7FE62
:101670000028F7D0206802F0A2FE10F0020F02D07E
:10168000236802225A61206802F099FE10F4002FAC
:1016900040F090803D46206802F091FE10F4802FCB
:1016A00040F00D81206802F08AFE0028C0F27981A6
:1016B000206802F084FE10F4006F09D0D6F80838D4
:1016C00013F0010F40F0868123684FF400625A61E5
:1016D000206802F074FE10F0006F14D023684FF001
:1016E00000625A6194F8EC33002B40F077810121BD
:1016F00084F8EC1323685B6DC3F38303C4F8F03301
:10170000204607F0B9FD206802F059FE10F4805F12
:1017100040F06881206802F052FE10F4005F40F053
:10172000BC81206802F04BFE10F0100F14D022682C
:10173000936923F010039361376A07F00F08C7F32A
:101740004343022B00F03682062B00F054822268BD
:10175000936943F010039361206802F030FE10F0AB
:10176000080F40F05C82206802F029FE10F4801F10
:1017700040F05C82206802F022FE10F4001F40F06E
:101780005E82206802F01BFE10F0804F40F0608205
:10179000206802F014FE10F0040F3FF463AF2368DA
:1017A0005D6815F0040F40F05B8223685A681543AA
:1017B0005D6057E7206802F006FE80463D4648E03F
:1017C000D6F8082B12F4004F5DD04FF400429A6017
:1017D00059E0E900491B8A002244D2F800121B6933
:1017E000C3F31203C91AC2F81012D2F80012D2F8C9
:1017F00004320B44C2F8043248E0002D4DD1C5EB51
:10180000C50293002344D3F80C32002B45D104F5D4
:101810006F720121206802F01DFE3EE0204607F0B5
:10182000E7FB06EB45130822C3F8082B19F0100F4D
:1018300004D006EB45131022C3F8082B19F0200F33
:1018400004D006EB45132022C3F8082B01354FEADC
:101850005808B8F1000F3FF41EAF18F0010FF5D093
:101860005FFA85FA5146206802F0BDFD814610F00E
:10187000010F12D006EB451303F5306301229A6085
:101880002269012A9CD02269012AA2D05146204611
:1018900007F0B6FB2369012BAFD019F0080FC5D0B4
:1018A0002369012BBAD1D6F8083B13F4004FB5D009
:1018B00006EB45134FF40042C3F8082BAEE720684F
:1018C00002F089FD80463D462EE0EA00521B93005F
:1018D0002344196C5A6C0A445A6446E019F0080F04
:1018E00004D006EB45130822C3F8082919F0100F9D
:1018F00004D006EB45131022C3F8082919F0400F55
:1019000004D006EB45134022C3F8082919F0020F52
:1019100004D006EB45130222C3F8082919F0800F02
:101920003AD101354FEA5808B8F1000F3FF4BAAE8A
:1019300018F0010FF5D05FFA85FA5146206802F0E1
:101940005BFD814610F0010FC8D0012202FA05F0BC
:10195000D6F8343823EA0003C6F8343806EB4513CA
:10196000C3F8082923699342AFD05146204607F0B7
:1019700053FB2369012BB1D1002DAFD1C5EBC502BB
:1019800093002344DB6C002BA8D104F56F72012176
:10199000206802F05FFDA1E729462046FFF76EFDB3
:1019A000BFE7D6F8043823F00103C6F8043894F8EA
:1019B000EC33012B07D0204607F068FB23684FF07B
:1019C00000425A6174E6002184F8EC13204607F0C7
:1019D00053FCF3E7204607F041FB75E6204607F08D
:1019E0003DFB90E6B04606F50069D9F8043023F0D7
:1019F0000103C9F804301021206802F0B9F813E09F
:101A000008EB4713FF21C3F80819D3F8002922F483
:101A10000012C3F80029C3F8081BD3F8002B22F4E6
:101A20000012C3F8002B013763689F42E8D34FF0E0
:101A3000FF33C9F81830D9F81C3043F00113C9F846
:101A40001C30236BE3B1D9F8843043F00B03C9F8A1
:101A50008430D9F8443043F00B03C9F84430D6F849
:101A6000003823F4FE63C6F8003804F56F72217C59
:101A7000206802F0EFFC23684FF480525A6149E677
:101A8000D9F8143043F02B03C9F81430D9F81030CA
:101A900043F00B03C9F81030E1E7206802F0BEFC08
:101AA0002268D36823F47053D360206802F04AF9A7
:101AB00088B90023E3604FF4007363612268D36840
:101AC00043F41053D360204607F0B7FA23684FF46D
:101AD00000525A6125E60323E3604023636100F06E
:101AE000A7FD614B0344614A934205D82268D3683D
:101AF00043F47053D360E6E75D4B03445D4A934281
:101B000005D82268D36843F46053D360DBE75A4BAF
:101B100003445A4A934205D82268D36843F4505389
:101B2000D360D0E7564B0344564A934205D8226807
:101B3000D36843F44053D360C5E7534B0344534A3F
:101B4000934205D82268D36843F43053D360BAE790
:101B50004F4B03444F4A934205D82268D36843F45D
:101B60002053D360AFE74C4B03444C4A934205D813
:101B70002268D36843F41053D360A4E7484B03446E
:101B8000484A934205D82268D36843F40053D3608F
:101B900099E7454B0344454A934205D82268D368E8
:101BA00043F4E053D3608EE72268D36843F4C05314
:101BB000D36088E747F6F0731F423FF4C8AD3F0992
:101BC0004FEAC80AAAEB08034FEA8309A144C7F306
:101BD0000A02D9F80412304602F04EFBC7F30A0796
:101BE000D9F804323B44C9F80432D9F810321F4402
:101BF000C9F81072ABE5082204F56F71304602F0A7
:101C00003BFBC7F30A174FEAC803A3EB08018A009E
:101C10002244D2F810321F44C2F8107297E52046D1
:101C200007F005FA236808225A619CE5E9B22046CC
:101C300007F038FA23684FF480125A619AE5E9B246
:101C4000204607F029FA23684FF400125A6198E5FC
:101C5000204607F02DFA23684FF080425A6197E53D
:101C6000204607F02BFAA0E5405327FFFF340C0075
:101C7000401E1BFF3F420F0000DC0BFF7F4F120096
:101C8000808CF9FE1FD6130060B6E5FE5FE31600F8
:101C900000D3CEFE3F771B00C05BB3FEBF91210097
:101CA00000CA91FE1F753800E05459FEDF9C4100C8
:101CB00090F8B833012B01D10220704710B50446CB
:101CC000012380F8B833006802F051FB002084F84B
:101CD000B80310BD70B54DB2002D18DB01F07F06C2
:101CE000C6EBC606B40004F5FC74044401F07F01A1
:101CF0002170ED0F6570A260E37005B1E180022BE9
:101D00000DD090F8B833012B0CD1022070BD01F03A
:101D10007F06C6EBC606B40038340444E6E7002369
:101D20002371EEE70546012380F8B83321460068A9
:101D300002F028F8002085F8B80370BD10B54AB24B
:101D4000002A12DB01F07F04C4EBC404A30003F5F6
:101D5000FC73034401F07F011970D20F5A7090F8A0
:101D6000B823012A09D1022010BD01F07F04C4EB81
:101D7000C404A30038330344ECE70446012280F88E
:101D8000B8231946006802F045F8002084F8B8032B
:101D900010BD70B501F07F06F500A91B8C0004F59D
:101DA000FC740119AD1BAC000444C4F80422C4F84F
:101DB0000C320023C4F8103284F8F93184F8F86149
:101DC0000369012B06D066B1DAB2006802F024F98B
:101DD000002070BDC6EBC605AC000444C4F8082260
:101DE000F1E7DAB2006802F055F8F1E701F00F010F
:101DF000C1EBC1018B001844B0F81002704770B5F8
:101E000001F07F06F500A91B8C0038340119AD1BC9
:101E1000AC0004446264E36400232365012384F876
:101E2000393084F838600369012B06D05EB1DAB22C
:101E3000006802F0F1F8002070BDC6EBC605AC00EA
:101E40000444A264F2E7DAB2006802F023F8F2E791
:101E500038B501F00F0243689A4231D84AB2002ADD
:101E600012DBC1EBC104A30003F5FC73034401249E
:101E70009C7001F07F041C70D20F5A7090F8B82348
:101E8000012A09D1022038BD01F07F04C4EBC4044B
:101E9000A30038330344EAE70546012280F8B8235B
:101EA0001946006802F0FCF91CB1002085F8B8035F
:101EB00038BD05F56F72297C286802F0CBFAF4E78B
:101EC000012038BD01F00F0243689A422AD810B5AC
:101ED0004AB2002A12DBC1EBC104A30003F5FC7374
:101EE000034400249C7001F07F011970D20F5A70D6
:101EF00090F8B823012A09D1022010BD01F07F0417
:101F0000C4EBC404A30038330344EAE704460122C7
:101F100080F8B8231946006802F0F4F9002084F82C
:101F2000B80310BD0120704790F8B833012B14D0CE
:101F300010B50446012380F8B83311F0800F06D1A4
:101F4000006801F029FE002084F8B80310BD01F0FC
:101F50007F01006801F00CFEF5E70220704730B405
:101F60000468606A29B10D46A36A00EB13400023A0
:101F70000CE040EA0240A06212E003F1400104EBF1
:101F80008101496800EB11400133DBB2691E8B42CD
:101F9000F3DB40EA024005F13F0104EB81014860B8
:101FA000002030BC70470368596200207047000071
:101FB000024603680121C0F8F413002082F8EC0304
:101FC0009A6942F000629A61596D024A0A435A6561
:101FD000704700BF0300001010B582B01B4B1A6C95
:101FE00042F080521A641B6C03F080530193019BF2
:101FF000174A136843F480331360FEF701FB04466D
:10200000134B5B6813F4803F08D1FEF7F9FA001B0D
:10201000B0F57A7FF4D9032002B010BD0C4A1368E2
:1020200043F400331360FEF7EBFA0446084B5B6899
:1020300013F4003F07D1FEF7E3FA001BB0F57A7FF7
:10204000F4D90320E8E70020E6E700BF00380240AB
:1020500000700040002800F0DB8170B582B00446BB
:10206000036813F0010F3AD0A24B9B6803F00C03F6
:10207000042B2BD09F4B9B6803F00C03082B20D024
:102080006368B3F5803F50D0002B54D1994B1A6848
:1020900022F480321A601A6822F480221A6063687F
:1020A000002B5FD0FEF7ACFA0546924B1B6813F489
:1020B000003F14D1FEF7A4FA401B6428F5D9032091
:1020C000ABE18C4B5B6813F4800FD9D0894B1B6854
:1020D00013F4003F03D06368002B00F09B8123685A
:1020E00013F0020F64D0834B9B6813F00C0F4DD09C
:1020F000804B9B6803F00C03082B42D0E368002B55
:1021000079D07C4A136843F001031360FEF778FA34
:102110000546784B1B6813F0020F63D1FEF770FA87
:10212000401B0228F5D9032077E1724A136843F473
:1021300080331360B3E7B3F5A02F09D06D4B1A6855
:1021400022F480321A601A6822F480221A60A6E70C
:10215000684B1A6842F480221A601A6842F480328E
:102160001A609CE7FEF74CFA0546624B1B6813F4B5
:10217000003FB4D0FEF744FA401B6428F5D9032091
:102180004BE15C4B5B6813F4800FB7D1594B1B6874
:1021900013F0020F04D0E368012B01D001203CE1D1
:1021A000544A136823F0F803216943EAC10313601A
:1021B000236813F0080F46D0636983B34D4A536F09
:1021C00043F001035367FEF71BFA0546494B5B6F6B
:1021D00013F0020F37D1FEF713FA401B0228F5D98E
:1021E00003201AE1434A136823F0F803216943EA04
:1021F000C1031360DCE73F4A136823F00103136057
:10220000FEF7FEF905463B4B1B6813F0020FCFD0DB
:10221000FEF7F6F9401B0228F5D90320FDE0354A08
:10222000536F23F001035367FEF7EAF90546314B7C
:102230005B6F13F0020F06D0FEF7E2F9401B022895
:10224000F5D90320E9E0236813F0040F7ED0294B71
:102250001B6C13F0805F31D1264B1A6C42F0805218
:102260001A641B6C03F080530193019B0125224BE0
:102270001B6813F4807F23D0A368012B34D0002B7C
:102280003CD11C4B1A6F22F001021A671A6F22F020
:1022900004021A67A368002B46D0FEF7B1F9064680
:1022A000144B1B6F13F0020F4FD1FEF7A9F9801BDF
:1022B00041F288339842F3D90320AEE00025D6E7F7
:1022C0000D4A136843F480731360FEF799F90646CC
:1022D000094B1B6813F4807FCED1FEF791F9801B68
:1022E0006428F5D9032098E0024A136F43F00103F4
:1022F0001367CFE70038024000700040052B09D07B
:10230000484B1A6F22F001021A671A6F22F004027A
:102310001A67BFE7434B1A6F42F004021A671A6F3D
:1023200042F001021A67B5E7FEF76AF906463D4B2F
:102330001B6F13F0020F08D0FEF762F9801B41F209
:1023400088339842F3D9032067E0F5B9A369002BDD
:1023500062D0344A926802F00C02082A5FD0022B45
:1023600019D0304A136823F080731360FEF748F9E0
:1023700004462C4B1B6813F0007F47D0FEF740F952
:10238000001B0228F5D9032047E0264A136C23F0EE
:1023900080531364DAE7234A136823F080731360D1
:1023A000FEF72EF905461F4B1B6813F0007F06D081
:1023B000FEF726F9401B0228F5D903202DE0E3693A
:1023C000226A1343626A43EA8213A26A5208013AFC
:1023D00043EA0243E26A43EA026343F00053114ACC
:1023E0005360136843F080731360FEF709F90446E5
:1023F0000C4B1B6813F0007F06D1FEF701F9001BA0
:102400000228F5D9032008E0002006E0002004E0BF
:1024100001207047012000E0002002B070BD0120C3
:10242000FBE700BF00380240F8B5254B9B6803F07E
:102430000C03042B41D0082B01D02248F8BD204BBF
:102440005A6802F03F025B6813F4800F12D01C4BF5
:102450005968C1F3881100231B48A1FB0001FDF757
:102460002FFF174B5B68C3F3014301335B00B0FBE5
:10247000F3F0F8BD124B5B68C3F388131E460027C8
:102480005C010025E41A65EB0705A90141EA9461A6
:10249000A001001B61EB0501CB0043EA5073C400AF
:1024A000A01943EB07018B0243EA905384022046B4
:1024B00019460023FDF704FFD3E70348F8BD00BF2A
:1024C000003802400024F40040787D01002800F02C
:1024D000A28070B50446524B1B6803F00F038B4279
:1024E0000CD24F4A136823F00F030B431360136899
:1024F00003F00F03994201D0012070BD236813F04F
:10250000020F17D013F0040F04D0464A936843F427
:10251000E0539360236813F0080F04D0414A936896
:1025200043F4604393603F4A936823F0F003A0684C
:10253000034393600D46236813F0010F31D06368A5
:10254000012B20D0022B25D0364A126812F0020F40
:1025500063D034498A6822F0030213438B60FEF78C
:102560004FF806462F4B9B6803F00C036268B3EBF1
:10257000820F16D0FEF744F8801B41F28833984250
:10258000F0D9032070BD274A126812F4003FE0D151
:10259000012070BD234A126812F0007FD9D10120BA
:1025A00070BD1F4B1B6803F00F039D420CD21C4AE9
:1025B000136823F00F032B431360136803F00F031A
:1025C0009D4201D0012070BD236813F0040F06D096
:1025D000144A936823F4E053E1680B439360236843
:1025E00013F0080F07D00F4A936823F46043216962
:1025F00043EAC1039360FFF717FF0A4B9B68C3F3DD
:102600000313094AD35CD840084B1860002006F039
:1026100023FC002070BD01207047012070BD00BF69
:10262000003C0240003802405CF60108B000002087
:10263000014B1868704700BFB000002008B5FFF7D5
:10264000F7FF044B9B68C3F38223034AD35CD84053
:1026500008BD00BF003802406CF6010808B5FFF75E
:10266000E7FF044B9B68C3F34233034AD35CD84073
:1026700008BD00BF003802406CF601080F2303605C
:102680000B4B9A6802F0030242609A6802F0F00273
:1026900082609A6802F4E052C2609B68DB0803F42F
:1026A000E0530361034B1B6803F00F030B6070479B
:1026B00000380240003C0240F0B583B00446036895
:1026C00013F0010F0CD0AF4B9A6822F400029A600D
:1026D0009A68416B0A439A60436BC3B1002700E0DC
:1026E0000027236813F4002F15D0A64AD2F88C30A7
:1026F00023F44013E16B0B43C2F88C30E36BB3F56A
:10270000801F06D0002B00F01B81002504E001276C
:10271000E7E70127F6E70025236813F4801F0FD0B1
:10272000984AD2F88C3023F44003216C0B43C2F852
:102730008C30236CB3F5800F00F0048103B90125C0
:10274000236813F0807F00D0012713F0200F40F0A2
:10275000FB80236813F0100F0CD08A4BD3F88C2029
:1027600022F08072C3F88C20D3F88C20A16B0A432E
:10277000C3F88C20236813F4804F08D0814AD2F824
:10278000903023F44033616E0B43C2F890302368DD
:1027900013F4004F08D07B4AD2F8903023F4402342
:1027A000A16E0B43C2F89030236813F4803F08D029
:1027B000744AD2F8903023F44013E16E0B43C2F810
:1027C0009030236813F4003F08D06E4AD2F890305E
:1027D00023F44003216F0B43C2F89030236813F0B9
:1027E000400F08D0674AD2F8903023F00303616CA1
:1027F0000B43C2F89030236813F0800F08D0614A71
:10280000D2F8903023F00C03A16C0B43C2F8903047
:10281000236813F4807F08D05A4AD2F8903023F00E
:102820003003E16C0B43C2F89030236813F4007F4F
:1028300008D0544AD2F8903023F0C003216D0B43E6
:10284000C2F89030236813F4806F08D04D4AD2F854
:10285000903023F44073616D0B43C2F890302368CD
:1028600013F4006F08D0474AD2F8903023F4406345
:10287000A16D0B43C2F89030236813F4805F08D039
:10288000404AD2F8903023F44053E16D0B43C2F834
:102890009030236813F4005F08D03A4AD2F89030A1
:1028A00023F44043216E0B43C2F89030236813F4A5
:1028B000800F08D0334AD2F8903023F08063A16FA4
:1028C0000B43C2F89030236813F4001F0DD02D4A3B
:1028D000D2F8903023F00063E16F0B43C2F89030E0
:1028E000E36FB3F1006F00F09980236813F0080FD5
:1028F00000D0012513F4802F08D0224AD2F890305E
:1029000023F04073616F0B43C2F89030236813F4D7
:10291000000F09D01B4AD2F8903023F08053D4F82E
:1029200080100B43C2F89030002F79D12368B3F1A7
:10293000007F75D0002D40F00781002003B0F0BD6E
:102940000125E9E60127F9E60E4B1A6C42F08052A8
:102950001A641B6C03F080530193019B0A4A1368AD
:1029600043F480731360FDF74BFE0646064B1B686D
:1029700013F4807F0AD1FDF743FE801B6428F5D94C
:102980000320DBE70038024000700040B34B1B6FB0
:1029900013F4407315D0226B02F44072934210D0AE
:1029A000AE4B1A6F22F44072196F41F480311967EF
:1029B000196F21F4803119671A671B6F13F0010F2B
:1029C00012D1236B03F44072B2F5407F1DD0A34AAD
:1029D000936823F4F8139360A0490B6F226BC2F342
:1029E0000B0213430B67B4E6FDF70AFE06469B4B4A
:1029F0001B6F13F0020FE4D1FDF702FE801B41F2C2
:102A000088339842F3D9032098E79448826822F4E7
:102A1000F812934919400A438260DDE7012564E713
:102A20008E4A136823F080631360FDF7E9FD0646C4
:102A30008A4B1B6813F0006F06D0FDF7E1FD801B89
:102A40006428F5D9032079E7236813F0010F13D028
:102A5000636B8BB9814AD2F88430D2F884106068F5
:102A600003F4403343EA801301F070610B43A16823
:102A700043EA0173C2F88430236813F4002F03D0B3
:102A8000E26BB2F5801F43D013F4801F03D0236C98
:102A9000B3F5800F3CD0236813F0807F11D06F4ACC
:102AA000D2F88400D2F88410666823691B0443EAD4
:102AB000861300F07060034301F0E0410B43C2F85D
:102AC0008430236813F0007F0DD0626823691B04F3
:102AD00043EA8213E26843EA0263A26843EA0273AC
:102AE0005E4AC2F884305D4A136843F08063136025
:102AF000FDF786FD0646594B1B6813F0006F7FF407
:102B000019AFFDF77DFD801B6428F4D9032015E77C
:102B1000524AD2F88430D2F88410606803F440330B
:102B200043EA8013E06843EA006301F0E0410B43AD
:102B3000C2F88430D2F88C3023F01F03616A013967
:102B40000B43C2F88C30A6E7444A136823F0805345
:102B50001360FDF755FD0546404B1B6813F0005F01
:102B600006D0FDF74DFD401B6428F5D90320E5E6AE
:102B7000236813F4002F01D0E26B22B113F4801FFD
:102B80001DD0236CDBB9354AD2F88830D2F88810D2
:102B9000606903F4403343EA8013A06943EA0063A9
:102BA00001F0E0410B43C2F88830D2F88C3023F4B6
:102BB000F853A16A013943EA0123C2F88C30236833
:102BC00013F4001F03D0E36FB3F1006F31D023681B
:102BD00013F0080F19D0214AD2F88810D2F88830A3
:102BE000606903F4403343EA801301F070610B43E2
:102BF000E16943EA0173C2F88830D2F88C3023F4DB
:102C00004033E16A0B43C2F88C30144A136843F036
:102C100080531360FDF7F4FC0446104B1B6813F05F
:102C2000005F19D1FDF7ECFC001B6428F5D90320E7
:102C300084E60A4AD2F88800D2F888106569236AC7
:102C40001B0443EA851300F07060034301F0E04188
:102C50000B43C2F88830BAE700206FE60038024024
:102C6000FFFCFF0FD8B138B504460D4690F82C3064
:102C700083B1022384F82C30211D206800F058FE17
:102C800062682946206800F08DFE012384F82C300C
:102C9000002038BD80F82D3004F086FDE9E70120E2
:102CA000704738B590F82C30DBB2022B01D10220EE
:102CB00038BD0D460446022380F82C30006800F031
:102CC000BDFE2B68022B04D0012384F82C30002099
:102CD00038BD052384F82C30002038BD90F82C3006
:102CE000DBB2022B01D10220704710B5044602234B
:102CF00080F82C30006800F0B7FE012384F82C30F7
:102D0000002010BD10B4036A046A24F001040462B8
:102D1000846924F0F00444EA021223F00A030B430E
:102D2000826103625DF8044B704710B4036A23F0BC
:102D3000100303628469036A24F4704444EA023293
:102D400023F0A00343EA0113826103625DF8044BA0
:102D50007047836823F0700341F007010B438360E1
:102D600070470268D36843F00103D36002681368B8
:102D700043F00103136000207047704770477047AD
:102D8000704710B5044603681A6912F0020F11D09B
:102D9000DA6812F0020F0DD06FF002021A610123FF
:102DA000037703689B6913F0030F79D0FFF7E6FF01
:102DB0000023237723681A6912F0040F12D0DA680F
:102DC00012F0040F0ED06FF004021A610223237771
:102DD00023689B6913F4407F68D02046FFF7CEFF3D
:102DE0000023237723681A6912F0080F12D0DA68DB
:102DF00012F0080F0ED06FF008021A610423237737
:102E00002368DB6913F0030F57D02046FFF7B6FFA6
:102E10000023237723681A6912F0100F12D0DA68A2
:102E200012F0100F0ED06FF010021A6108232377F2
:102E30002368DB6913F4407F46D02046FFF79EFFEE
:102E40000023237723681A6912F0010F03D0DA6890
:102E500012F0010F3FD123681A6912F0800F03D0DE
:102E6000DA6812F0800F3DD123681A6912F4807F6E
:102E700003D0DA6812F0800F3BD123681A6912F090
:102E8000400F03D0DA6812F0400F39D123681A6975
:102E900012F0200F03D0DA6812F0200F37D110BDE6
:102EA000FFF76BFF2046FFF76AFF81E72046FFF739
:102EB00064FF2046FFF763FF92E72046FFF75DFFC0
:102EC0002046FFF75CFFA3E72046FFF756FF2046AA
:102ED000FFF755FFB4E76FF001021A61204605F0D5
:102EE000C8FCB8E76FF080021A61204600F093F941
:102EF000BAE76FF080021A61204600F08CF9BCE757
:102F00006FF040021A612046FFF73AFFBEE76FF00C
:102F100020021A61204600F07DF9C0E770B4036812
:102F2000474A904214BF00220122B0F1804F14BFE3
:102F3000144642F00104D4B9424DA84214BF002502
:102F40000125414EB04254D0002D52D105F18045AB
:102F500005F58235A84214BF0025012506F5006657
:102F6000B04202D00DB9002502E0012500E00125A4
:102F70001DB123F070034D682B43002C3DD1314C23
:102F8000A04214BF002401242F4DA84250D0002C91
:102F90004ED104F1804404F58234A04214BF0024D1
:102FA000012405F50065A84244D0002C42D1274CED
:102FB000A04214BF0024012405F59A35A8423BD055
:102FC000002C39D1224CA04214BF0024012405F565
:102FD0000065A84232D0002C30D11E4CA04214BF54
:102FE00000240124A5F59635A84204D01CB900247C
:102FF00004E00125BCE7012400E001241CB123F416
:103000004073CC68234323F080034C69234303605F
:103010008B68C3620B6883620F4B984208BF42F013
:1030200001020AB10B6903630123436170BC70475D
:103030000124E3E70124E1E70124DFE70124DDE7E0
:10304000000001400008004000040040004401402E
:10305000001800400020004000040140A8B110B555
:10306000044690F83D305BB1022384F83D30211DC9
:103070002068FFF753FF012384F83D30002010BD86
:1030800080F83C3005F08EFEEEE70120704710B46A
:10309000846824F47F4442EA032319430C43846088
:1030A0005DF8044B7047000090F83C30012B7DD058
:1030B00010B50446012380F83C30022380F83D30EF
:1030C000026890683A4B034093600B68402B59D0DC
:1030D00010D9702B3ED01FD8502B49D0602B32D145
:1030E000CA6849682068FFF720FE60212068FFF762
:1030F00030FE28E0102B4FD008D9202B51D0302B98
:1031000021D130212068FFF724FE1CE0DBB900212B
:103110002068FFF71EFE16E0B3F5805F0ED0B3F512
:10312000005F10D1CB684A6889682068FFF7AFFF5D
:103130002268936843F48043936004E022689168B6
:103140001C4B0B409360012384F83D30002084F831
:103150003C0010BDCB684A6889682068FFF797FF7C
:1031600022689168144B0B4043F077039360EAE7C1
:10317000CA6849682068FFF7C5FD50212068FFF73D
:10318000E8FDE0E7CA6849682068FFF7BBFD402119
:103190002068FFF7DEFDD6E710212068FFF7D9FD94
:1031A000D1E720212068FFF7D4FDCCE7022070474B
:1031B0008800FEFFF8FFFEFF88FFFEFF90F83C301E
:1031C000012B21D070B4012380F83C30046863687F
:1031D000A2680E4D0E4EAC4218BFB44203D123F488
:1031E00070034D682B4323F070030D682B4322F0CE
:1031F000800289680A43636003689A60002380F84C
:103200003C30184670BC70470220704700040140F3
:1032100000000140704770472DE9F04105460F4618
:1032200016469846069C2B68DB6937EA03030CBFF9
:1032300001230023B3421ED1B4F1FF3FF3D02CB1E0
:10324000FDF7DEF9A0EB08008442ECD82A68136889
:1032500023F4D07313602A68936823F0010393600A
:10326000202385F8693085F86A30002385F86830B6
:103270000320BDE8F0810020BDE8F0812DE9F04198
:1032800082B01E4690F86930DBB2202B04D00223B6
:10329000184602B0BDE8F08104460D469046002A6B
:1032A00018BF00294CD090F86830012B01D10223BF
:1032B000EEE7012380F868300023C366212380F8FD
:1032C0006930FDF79DF90746A4F85080A4F85280B4
:1032D00003E023682A789A620135B4F852309BB231
:1032E000E3B1B4F852309BB2013B9BB2A4F8523028
:1032F00000963B46002280212046FFF78DFF08BB49
:10330000A368B3F5805FE4D12369002BE1D1226883
:1033100035F8023BC3F308039362DEE700963B46B1
:10332000002240212046FFF777FF034608B1032320
:10333000AEE7202284F86920002284F86820A7E7FD
:103340000123A5E70323A3E72DE9F04182B01E4640
:1033500090F86A30DBB2202B03D0022002B0BDE827
:10336000F08104460D469046002A18BF00296DD012
:1033700090F86830012B01D10220EFE7012380F89B
:1033800068300023C366222380F86A30FDF738F9DD
:103390000746A4F85880A4F85A80A368B3F5805F64
:1033A00006D0A3B9236973B9FF23A4F85C3011E0F8
:1033B000236923B940F2FF13A4F85C300AE0FF232D
:1033C000A4F85C3006E07F23A4F85C3002E0B3F19F
:1033D000805F02D0B4F85C8010E023691BB97F23C2
:1033E000A4F85C30F6E73F23A4F85C30F2E72368EA
:1033F0005A6A5FFA88F313402B700135B4F85A30DB
:103400009BB2E3B1B4F85A309BB2013B9BB2A4F833
:103410005A3000963B46002220212046FFF7FCFE52
:10342000B0B9A368B3F5805FE1D12369002BDED189
:1034300023685B6A08EA030325F8023BDEE72023E2
:1034400084F86A30002084F8680087E7012085E767
:10345000032083E738B50446836802691343426951
:103460001343C269134301680868A04A024013432A
:103470000B602268536823F44053E1680B435360A8
:10348000A369226A134321688A6822F430621343D5
:103490008B602568964B9D422BD0964B9D423CD02D
:1034A000954B9D4252D0954B9D4267D0944B9D4287
:1034B0007CD0944B9D4200F09480934B9D4200F051
:1034C000AB80924B9D4200F0C2801023E269B2F5BE
:1034D000004F00F0DB80082B00F26881DFE813F07A
:1034E00031013C0147016601510166016601660137
:1034F0005C0103F59433D3F8903003F00303032BFE
:1035000003D8DFE803F0BF0604081023DEE7022338
:10351000DCE70423DAE70823D8E703F5FA33D3F826
:10352000903003F00C030C2B08D8DFE803F0AD0754
:1035300007070B070707090707070D001023C5E753
:103540000223C3E70423C1E70823BFE703F5F833E9
:10355000D3F8903003F03003102B0DD005D9202B79
:1035600008D0302B04D10823B0E70BB90023ADE716
:103570001023ABE70223A9E70423A7E703F5F633FB
:10358000D3F8903003F0C003402B0DD005D9802B29
:1035900008D0C02B04D1082398E70BB9002395E786
:1035A000102393E7022391E704238FE703F5F43315
:1035B000D3F8903003F44073B3F5807F0FD007D970
:1035C000B3F5007F09D0B3F5407F04D108237DE730
:1035D0000BB900237AE7102378E7022376E7042368
:1035E00074E703F59233D3F8903003F44063B3F5F6
:1035F000806F0FD007D9B3F5006F09D0B3F5406FD6
:1036000004D1082362E70BB901235FE710235DE7CC
:1036100002235BE7042359E703F5E033D3F8903046
:1036200003F44053B3F5805F0FD007D9B3F5005FC3
:1036300009D0B3F5405F04D1082347E70BB9002355
:1036400044E7102342E7022340E704233EE703F563
:10365000DE33D3F8903003F44043B3F5804F0FD0FE
:1036600007D9B3F5004F09D0B3F5404F04D1082373
:103670002CE70BB9002329E7102327E7022325E7CE
:10368000042323E7012321E700231FE7082B55D854
:10369000DFE803F005172254405454544B00FEF762
:1036A000CDFF6268530803EB4003B3FBF2F39BB218
:1036B000002023F00F02C3F3420313432268D360B8
:1036C00038BDFEF7CBFF6268530803EB4003B3FB42
:1036D000F2F39BB20020ECE762680D4B03EB520360
:1036E000B3FBF2F39BB20020E3E700BFF369FFEF07
:1036F000001001400044004000480040004C0040E1
:10370000005000400014014000780040007C004060
:103710000048E801FEF788FE6268530803EB4003A7
:10372000B3FBF2F39BB20020C3E76268530803F5D2
:103730008033B3FBF2F39BB20020BAE701200023F1
:10374000B7E7FEF77BFF636800EB5300B0FBF3F0D5
:1037500080B2E860002038BDFEF780FF636800EBB0
:103760005300B0FBF3F080B2E860002038BD62681F
:103770000F4B03EB5203B3FBF2F39BB2EB60002061
:1037800038BDFEF751FE636800EB5300B0FBF3F069
:1037900080B2E860002038BD6268530803F500433A
:1037A000B3FBF2F39BB2EB60002038BD012038BDC3
:1037B0000024F400436A13F0010F06D00268536836
:1037C00023F40033816A0B435360436A13F0020F02
:1037D00006D00268536823F48033C16A0B435360F8
:1037E000436A13F0040F06D00268536823F4802361
:1037F000016B0B435360436A13F0080F06D0026855
:10380000536823F40043416B0B435360436A13F046
:10381000100F06D00268936823F48053816B0B432A
:103820009360436A13F0200F06D00268936823F474
:103830000053C16B0B439360436A13F0400F0AD0EF
:103840000268536823F48013016C0B435360036CCC
:10385000B3F5801F0BD0436A13F0800F06D00268C7
:10386000536823F40023816C0B4353607047026854
:10387000536823F4C003416C0B435360EBE710B56E
:1038800082B004460023C366FCF7BAFE22681268C1
:1038900012F0080F09D1202384F8693084F86A30C7
:1038A000002084F8680002B010BD6FF07E430093E2
:1038B000034600224FF400112046FFF7ADFC00281C
:1038C000E9D00320EFE778B310B5044690F86930EB
:1038D0000BB3242384F869302268136823F00103B2
:1038E00013602046FFF7B6FD01281FD0636ABBB9FD
:1038F0002268536823F4904353602268936823F04E
:103900002A0393602268136843F001031360204682
:10391000FFF7B5FF10BD80F8683005F06BFAD8E707
:103920002046FFF747FFE3E70120704710BD000086
:1039300030B40B68012B18D00368194A1A404B6841
:103940008C682343CC6823430C6923434C6923438D
:103950008C692343CC6923430C6A2343496A0B4394
:1039600013430360002030BC7047046824F4F8441B
:10397000CB690A6A13434A6A13431C434368084AE3
:103980001A404B688D682B43CD682B430D692B4340
:103990004D692B4389690B43134304604360E1E79E
:1039A0000080FFFF30B4012A21D0826802F070420B
:1039B0000B68013B4C68013C43EA04138C68013CF2
:1039C00043EA0423CC68013C43EA04330C69013C1C
:1039D00043EA04434C69013C43EA045389690139D1
:1039E00043EA016313438360002030BC704783685F
:1039F000114C1C40CB685A1E4B69013B1B0543EA26
:103A000002331C43C26802F070420B68013B4D68F0
:103A1000013D43EA05138D68013D43EA05230D6925
:103A2000013D43EA05438969013943EA01631343D0
:103A30008460C360D8E700BFFF0F0FFF10B483B0EE
:103A40000446002001900B684A6813438A68013AD3
:103A500043EA4213CA6843EA42230193019B23616C
:103A600003B05DF8044B7047436943EA410141618B
:103A700000207047002301330C4A934211D8026999
:103A8000002AF8DA036943F00103036100230133DC
:103A9000064A934207D8026912F0010FF7D10020BD
:103AA0007047032070470320704700BF400D03009C
:103AB00084B010B5044603A880E80E00089B012BD3
:103AC00011D0E36843F04003E3602046FFF7D2FFE4
:103AD0004FF48033A363069B012B1CD00020BDE86C
:103AE000104004B07047A36B23F48033A363E268F3
:103AF0000D4B1340E360E36823F44013E3600F9B36
:103B0000012B03D02046FFF7B5FFE4E7E36843F459
:103B10008013E360F6E7A36843F00603A360A3689D
:103B200043F02003A360D9E7BFFFBDFF836843F0E4
:103B30000103836000207047836823F001038360E2
:103B40000020704708B5C36823F0C043C360012953
:103B500009D019B9C36843F08043C3603220FCF731
:103B600055FD002008BDC36843F00053C360F5E76E
:103B7000890141F02001016100230133054A93428C
:103B800005D8026912F0200FF7D1002070470320FA
:103B9000704700BF400D0300102303610023013371
:103BA000054A934205D8026912F0100FF7D10020A0
:103BB00070470320704700BF400D0300D0F8003865
:103BC0001943C0F8001800207047000084B0F8B511
:103BD000054607A880E80E00AB6B43F40013AB6307
:103BE000119F5FB9AB6B23F40013AB632B6843F0F9
:103BF00040032B602B6843F080032B602C4600238E
:103C0000C5F8003E05F50066D5F80038C5F800385F
:103C10000C9B012B14D0032B1ED003212846FFF749
:103C2000CDFF10212846FFF7A3FF2846FFF7B4FF7A
:103C30000023336173614FF0FF32B261F36120E022
:103C4000099B23B900212846FFF7B8FFE9E70121C6
:103C50002846FFF7B3FFE4E7099B23B90021284674
:103C6000FFF7ACFFDDE701212846FFF7A7FFD8E704
:103C70004FF09040C2F8000900220A61FF228A60DA
:103C8000013307998B420BD204EB431202F510610A
:103C9000D2F800090028EBDB0020C2F80009EBE7AE
:103CA000002308E04FF0904EC2F800EB00220261C2
:103CB000FF22826001338B420DD204EB431202F5E6
:103CC0003060D2F800EBBEF1000FEBDB4FF0000EDE
:103CD000C2F800EBEAE7336923F4807333610A9B8F
:103CE000012B1AD00022AA616FF080426A611BB9D1
:103CF000AB6943F01003AB61AA690E4B1343AB6190
:103D00000D9B1BB1AB6943F00803AB61012F0CD0D5
:103D10000020BDE8F84004B07047074A3263316BB9
:103D2000064A0A433263326BDCE7AA69044B134349
:103D3000AB61EDE700383C8000018000030001002A
:103D400004000040D0F8083800F5006013F0060FBA
:103D500010D0836803F00603022B0DD0836803F0B4
:103D60000603062B0AD0836803F00603042B07D052
:103D700000207047002070470320704703207047E1
:103D80000220704730B44B78012B20D0D0F81C387B
:103D90000D780122AA4043EA0243C0F81C380B7890
:103DA00000EB4310D0F8003B13F4004F0CD1D0F8D7
:103DB000002B8B68C3F30A03C97843EA814313439A
:103DC000134A1A43C0F8002B002030BC7047D0F8CB
:103DD0001C280D78AB409BB21343C0F81C380A78FE
:103DE00000EB4210D0F8003913F4004FECD1D0F8BA
:103DF00000498B68C3F30A03C97843EA814343EA65
:103E000082532343024A1A43C0F80029DCE700BF6B
:103E10000080001030B44B78012B1DD0D0F83C4806
:103E20000D78012202FA05F524EA0544C0F83C4861
:103E3000D0F81C480D78AA4024EA0242C0F81C2899
:103E40000B7800EB4310D0F8003B23F40043C0F89C
:103E5000003B002030BC7047D0F83C580A7803FA89
:103E600002F292B225EA0202C0F83C28D0F81C28DF
:103E70000D78AB409BB222EA0303C0F81C380B78E4
:103E800000EB4310D0F8003923F40043C0F80039A8
:103E9000DFE7000030B44B78012B37D00B7800EB14
:103EA0004313D3F8105B504C2C40C3F8104B0B78E5
:103EB00000EB4313D3F8105B4C4C2C40C3F8104B71
:103EC0004B690BB18B684B610B7800EB4313D3F854
:103ED000104B44F40024C3F8104B0B7800EB431351
:103EE000D3F8104B8D68C5F312052C43C3F8104B63
:103EF000012A71D00B7800EB4310D0F8003B43F05F
:103F00000443C0F8003B002030BC70474B6983BBC2
:103F10000B7800EB4313D3F81059344C2C40C3F802
:103F200010490B7800EB4313D3F8104944F40024F4
:103F3000C3F810490B7800EB4313D3F810592A4CFF
:103F40002C40C3F81049012A3FD04B693BB1D0F84F
:103F500034380D780122AA401343C0F834380B7866
:103F600000EB4310D0F8003943F00443C0F80039A7
:103F7000C9E70B7800EB4313D3F810591A4C2C40C7
:103F8000C3F810490B7800EB4313D3F81059174CC2
:103F90002C40C3F810494C698B689C4200D94B6196
:103FA0000B7800EB4313D3F8104944F40024C3F812
:103FB00010490B7800EB4313D3F810494D69C5F352
:103FC00012052C43C3F81049BDE70B7800EB4313EF
:103FD0000A69C3F81429C2E70B7800EB4313CA68D7
:103FE000C3F8142B86E700BF0000F8FFFFFF07E0CF
:103FF00070B49DF80C4064B903339E1007E000EBE9
:10400000023303F5805351F8045B1D600134B44260
:10401000F5D3002070BC704770B582B04B78012B8F
:104020003CD00B7800EB4313D3F8105B8F4C2C4043
:10403000C3F8104B0B7800EB4313D3F8105B8C4C98
:104040002C40C3F8104B4B69002B40F0D0800B780C
:1040500000EB4313D3F8104B8D68C5F312052C43C6
:10406000C3F8104B0B7800EB4313D3F8104B44F418
:104070000024C3F8104B012A00F0D880CB78012B24
:1040800000F0DB800B7800EB4310D0F8003B43F0EE
:104090000443C0F8003B002002B070BD4B695BBB1D
:1040A0000B7800EB4313D3F81059714C2C40C3F834
:1040B00010490B7800EB4313D3F8104944F4002463
:1040C000C3F810490B7800EB4313D3F81059674C31
:1040D0002C40C3F81049012A52D0CB78012B55D07F
:1040E0004B69002B52D0D0F834380E780124B440FC
:1040F0002343C0F8343849E00B7800EB4313D3F87E
:1041000010595A4C2C40C3F810490B7800EB43135C
:10411000D3F81059564C2C40C3F810490C7800EBDA
:104120004414D4F810594B698E683344013BB3FBF7
:10413000F6F3504E06EAC3432B43C4F810390B780C
:1041400000EB4313D3F810494D69C5F312052C4316
:10415000C3F81049CB78012BBDD10B7800EB43138A
:10416000D3F8104924F0C044C3F810490B7800EB91
:104170004313D3F8104944F00054C3F81049AAE798
:104180000B7800EB43130C69C3F81449CB78012B6F
:1041900014D00B7800EB4313D3F8004944F00444E7
:1041A000C3F80049CB78012B7FF475AF14468B8A96
:1041B0000A78C9680094FFF71BFF6CE7D0F808384D
:1041C00013F4807F09D10B7800EB4313D3F8004937
:1041D00044F00054C3F80049DBE70B7800EB4313CD
:1041E000D3F8004944F08054C3F80049D1E78C6803
:1041F0002344013BB3FBF4F30C7800EB4414D4F8F4
:10420000105B1C4E06EAC3463543C4F8105B0C78BD
:1042100000EB4414D4F8106B8D689BB205FB03F5DA
:10422000C5F312053543C4F8105B24E70B7800EBA7
:104230004313CA68C3F8142B20E7D0F8083813F4E6
:10424000807F09D10B7800EB4313D3F8002B42F0A9
:104250000052C3F8002B15E70B7800EB4313D3F89B
:10426000002B42F08052C3F8002B0BE70000F8FF50
:10427000FFFF07E00000F81F033292100023934273
:104280000CD210B400F58054246841F8044B01337B
:104290009342F7D308465DF8044B704708467047D1
:1042A0004B78012B17D00B7800EB4313D3F8002B7E
:1042B000002A05DBD3F8002B22F08042C3F8002B44
:1042C0000B7800EB4310D0F8003B43F40013C0F828
:1042D000003B002070470B7800EB4313D3F8002914
:1042E000002A05DBD3F8002922F08042C3F8002918
:1042F0000B7800EB4310D0F8003943F40013C0F8FA
:104300000039E6E74B78012B0FD00B7800EB431315
:10431000D3F8002B22F40012C3F8002BCB78023B19
:10432000DBB2012B19D9002070470B7800EB431347
:10433000D3F8002922F40012C3F80029CB78023BFD
:10434000DBB2012BEFD80B7800EB4310D0F800392B
:1043500043F08053C0F80039E5E70B7800EB4310D9
:10436000D0F8003B43F08053C0F8003BDBE7D0F8C7
:10437000003823F4FE63C0F80038D0F80038090193
:1043800001F4FE610B43C0F800380020704708B507
:10439000D0F8043823F00203C0F804380320FCF7F7
:1043A00035F9002008BD08B5D0F8043843F0020301
:1043B000C0F804380320FCF729F9002008BD426941
:1043C000806910407047D0F8183800F50060C06967
:1043D0001840000C7047D0F8183800F50060C0692C
:1043E000184080B2704700EB4111D1F8082B00F55E
:1043F0000060406910407047D0F81028D0F8343879
:10440000CB40DB01DBB2134300EB4111D1F80809CB
:1044100018407047406900F001007047D0F800294B
:104420000B4B1340C0F8003900F500639A6802F0A6
:104430000602042A05D05A6842F480725A600020AD
:104440007047D0F8002942F00302C0F80029F2E7D3
:1044500000F8FFFF10B40024C0F8104BD0F8104B48
:1044600044F40024C0F8104BD0F8104B44F018046A
:10447000C0F8104BD0F8104B44F0C044C0F8104BBB
:10448000012903D000205DF8044B7047C0F8142BBD
:104490004FF08023C0F8003BF4E70000104B5B7A3C
:1044A000DBB930B40E4B5D7AEDB200245C555D7A19
:1044B00003EB85056860587A184402725A7AD2B2C2
:1044C000501CC0B2587230320A703A234B702F23FE
:1044D0008B70CC70204630BC70470120704700BF05
:1044E000E004002008B50022FFF7D8FF08BD8428AB
:1044F00001D00330704700207047EFF30580003093
:1045000018BF0120704708B501F0BAF8002008BDB7
:1045100008B5FFF7F2FF10B901F0FCF808BD01F093
:10452000FFF808BDF0B585B00F4644680568066918
:10453000B0F90800FFF7DBFF03AB019300903B46A7
:10454000B2B22946204601F069F8012802D1039849
:1045500005B0F0BD0020FBE708B501F07BFB08BD0E
:1045600008B5034600B90123184601F0F3F900200D
:1045700008BD08B5012000F063FD08BD30B583B06B
:104580000023019360B30C460546B1F1FF3F0DD007
:1045900001B91C46FFF7B1FFB8B101AA00212846B6
:1045A00000F09EFE012804D0FF2017E04FF0FF34FA
:1045B000F0E7019BB3B14FF080520C4B1A60BFF390
:1045C0004F8FBFF36F8F002008E00023224619466B
:1045D000284600F0A7FD012806D0FF2003B030BD1B
:1045E0008020FBE70020F9E70020F7E704ED00E07A
:1045F00010B582B0044600230193FFF77EFFA0B1FF
:1046000001A9204600F027FD012802D0FF2002B0BA
:1046100010BD019BABB14FF080520B4B1A60BFF342
:104620004F8FBFF36F8F0020F1E700231A46194622
:10463000204600F02DFC012801D0FF20E7E70020F4
:10464000E5E70020E3E700BF04ED00E010B5012935
:104650000DD103220021012000F0F4FB044620B11B
:1046600000231A46194600F013FC204610BD002412
:10467000FBE708B501F0F4FA012801D000F01AF9BF
:1046800008BD00F1080343604FF0FF328260C36051
:104690000361002303607047002303617047436890
:1046A0004B609A688A609A685160996008610368F3
:1046B00001330360704730B40D68B5F1FF3F02D09D
:1046C00000F1080202E0026904E01A4653681C681F
:1046D000A542FAD253684B6099608A6051600861C4
:1046E00003680133036030BC704703694268816826
:1046F00091608268416851605A68904205D00022FA
:104700000261186801381860704782685A60F6E7DD
:104710000D4B1B68B3F1FF3F0AD04FF0500372B648
:1047200083F31188BFF36F8FBFF34F8F62B6FEE73D
:104730004FF0500372B683F31188BFF36F8FBFF34E
:104740004F8F62B6FEE700BF0400002006480068F5
:10475000006880F3088862B661B6BFF34F8FBFF37D
:104760006F8F00DF00BF000008ED00E0DFF80C00F5
:10477000016841F4700101607047000088ED00E0BD
:104780004FF0807340F8043C21F0010140F8081C10
:10479000054B40F80C3C40F8202C6FF0020340F829
:1047A000243C4438704700BF114700080000000057
:1047B000074B19680868B0E8F04F80F30988BFF329
:1047C0006F8F4FF0000080F311887047AFF30080C7
:1047D0000CF500204FF0500372B683F31188BFF33D
:1047E0006F8FBFF34F8F62B60B4A136801331360AC
:1047F000012B0FD1094B1B6813F0FF0F0AD04FF0AC
:10480000500372B683F31188BFF36F8FBFF34F8FDE
:1048100062B6FEE7704700BF0400002004ED00E030
:104820000A4B1B6853B94FF0500372B683F31188DB
:10483000BFF36F8FBFF34F8F62B6FEE7013B034AB2
:1048400013600BB983F31188704700BF0400002088
:10485000EFF30980BFF36F8F154B1A681EF0100F2E
:1048600008BF20ED108A20E9F04F10604DF8043D9C
:104870004FF0500072B680F31188BFF34F8FBFF333
:104880006F8F62B601F0D2F84FF0000080F311880C
:1048900008BC19680868B0E8F04F1EF0100F08BF98
:1048A000B0EC108A80F30988BFF36F8F704700BFA8
:1048B0000CF5002008B54FF0500372B683F3118851
:1048C000BFF36F8FBFF34F8F62B600F031FF18B1A7
:1048D0004FF08052024B1A60002383F3118808BD09
:1048E00004ED00E0064B1B68064AA2FB03239B096C
:1048F000013B054A13600722044B1A60704700BF52
:10490000B0000020D34D621014E000E010E000E0A1
:1049100000B583B0224B1A78D2B20192FF221A70EE
:104920001B78DBB28DF803309DF8033003F05003A1
:104930001C4A137007221C4B1A6009E01A4A1368BC
:10494000013B13609DF803305B00DBB28DF8033050
:104950009DF8033013F0800FF0D1134A13681B0247
:1049600003F4E0631360019BDBB20D4A13700F4B3D
:104970001A6842F470021A601A6842F070421A60B3
:10498000FFF7B0FF00220A4B1A60FFF7EFFE094A5B
:10499000136843F040431360FFF7D8FEFFF7B8FEFB
:1049A00000E400E0EC040020F004002020ED00E032
:1049B0000400002034EF00E0EFF305830F2B11D942
:1049C000124A9B5CDBB2124A127893420AD24FF031
:1049D000500372B683F31188BFF36F8FBFF34F8F0D
:1049E00062B6FEE70B4B1B6803F4E0630A4A1268E9
:1049F00093420AD94FF0500372B683F31188BFF384
:104A00006F8FBFF34F8F62B6FEE77047F0E300E0B1
:104A1000EC0400200CED00E0F0040020124A12F03B
:104A2000070F1ED0D11D21F00701C1F570431344BB
:104A30000A460E480260002141601344083B23F0FF
:104A400007030B48036059601960991A516013609D
:104A5000084B1960084B19604FF00042074B1A6071
:104A600070474FF47043E4E7F804002004F5002099
:104A7000F404002000F50020FCF40020F8F40020ED
:104A800010B4134B1A6882421BD359685C18A042B9
:104A900003D1406801445960184641684418A24255
:104AA00013D10C4C2468A2420DD0526811444160CD
:104AB0001A6812680260984200D018605DF8044BD2
:104AC00070471346DEE70460F5E70260F3E700BFD6
:104AD00004F50020F404002070B5044600F012FE36
:104AE0003D4B1B68CBB13D4B1B681C4269D1BCB12F
:104AF000083414F0070F13D024F00704083404F02E
:104B000007036BB14FF0500372B683F31188BFF304
:104B10006F8FBFF34F8F62B6FEE7FFF77FFFE2E7CD
:104B2000002C50D02E4B1B689C424ED82D4B1D683C
:104B300001E02B4615466A68944202D92A68002A89
:104B4000F7D1254A1268954241D01E6808362A6876
:104B50001A606B681B1B102B12D9281910F0070F55
:104B60000AD04FF0500372B683F31188BFF36F8FF2
:104B7000BFF34F8F62B6FEE743606C60FFF780FFC4
:104B80006A6817490B689B1A0B60174909688B42C2
:104B900001D215490B60114B1B6813436B60002356
:104BA0002B6000F057FE16F0070F12D04FF05003A5
:104BB00072B683F31188BFF36F8FBFF34F8F62B666
:104BC000FEE70026EDE70026EBE70026E9E70026F2
:104BD000E7E7304670BD00BFF4040020F8F4002081
:104BE000FCF4002004F5002000F50020002834D05B
:104BF00038B50446A0F1080550F8042C1749096897
:104C00000A420AD14FF0500372B683F31188BFF302
:104C10006F8FBFF34F8F62B6FEE750F8080C50B1AC
:104C20004FF0500372B683F31188BFF36F8FBFF359
:104C30004F8F62B6FEE722EA010244F8042C00F02E
:104C400061FD54F8041C064A13680B44136028469F
:104C5000FFF716FF00F0FEFD38BD7047F8F40020A6
:104C6000FCF4002010B50446FFF7B4FDA26BE36B23
:104C70009A4204D00024FFF7D3FD204610BD012442
:104C8000F9E710B50446FFF7A5FDA36B23B1002497
:104C9000FFF7C6FD204610BD0124F9E770B50446B4
:104CA0001646856B026C4AB9036853BB406801F035
:104CB00039F8002363600135A56370BD6EB9806863
:104CC00019F05AFB226CA3681344A36062689342F4
:104CD00019D32368A3600020EDE7C06819F04CFBEE
:104CE000236C5B42E2681A44E26021688A4202D285
:104CF00062681344E360022E07D145B1013D0020F4
:104D0000D9E70020D7E70020D5E70020D3E700202F
:104D1000D1E7026C72B110B50346C4681444C46094
:104D20004068844201D31868D8600846D96819F0F1
:104D300023FB10BD704738B50546FFF74BFD95F8CE
:104D4000454064B201E0013C64B2002C0ADD6B6AAC
:104D500043B105F1240000F0D3FE0028F3D000F0A9
:104D600073FFF0E7FF2385F84530FFF759FDFFF7A4
:104D700031FD95F8444064B201E0013C64B2002C7E
:104D80000ADD2B6943B105F1100000F0B9FE0028DF
:104D9000F3D000F059FFF0E7FF2385F84430FFF728
:104DA0003FFD38BD38B530B304460D46FFF712FD60
:104DB0002168E26B236C03FB021060600020A0639B
:104DC000A160013A02FB0313E360FF2384F844303F
:104DD00084F84530D5B9236903B304F1100000F01D
:104DE0008FFED8B14FF080520E4B1A60BFF34F8F39
:104DF000BFF36F8F12E04FF0500372B683F3118848
:104E0000BFF36F8FBFF34F8F62B6FEE704F1100060
:104E1000FFF737FC04F12400FFF733FCFFF700FD38
:104E2000012038BD04ED00E010B5029B0C4639B1FD
:104E30001A60D8631C6401211846FFF7B3FF10BD48
:104E40001B60F6E750B94FF0500372B683F3118838
:104E5000BFF36F8FBFF34F8F62B6FEE7F0B583B03D
:104E6000054611B101FB00F000E0002017460C469A
:104E70004830FFF731FE064638B100903B4600F15E
:104E8000480221462846FFF7CFFF304603B0F0BD69
:104E9000F0B585B0019270B10446B9B10125DDB914
:104EA0004FF0500372B683F31188BFF36F8FBFF3D7
:104EB0004F8F62B6FEE74FF0500372B683F311884E
:104EC000BFF36F8FBFF34F8F62B6FEE7026C0AB974
:104ED0000125E4E70025E2E7022B0BD07DB94FF076
:104EE000500372B683F31188BFF36F8FBFF34F8FF8
:104EF00062B6FEE7E26B012AF0D00025EEE71E461F
:104F00000F4600F0ADFE10B9019B03B1002555B965
:104F10004FF0500372B683F31188BFF36F8FBFF366
:104F20004F8F62B6FEE700252CE032463946204618
:104F3000FFF7B4FE636A8BB104F1240000F0E0FDDA
:104F400038B14FF08052374B1A60BFF34F8FBFF329
:104F50006F8FFFF765FC012005B0F0BD0028F8D089
:104F60004FF080522F4B1A60BFF34F8FBFF36F8FFC
:104F7000EFE7FFF755FC0020EEE72046FFF7DBFEEA
:104F800000F068FCFFF726FCA26BE36B9A42CCD3DF
:104F9000022ECAD0019B002BEBD01DB902A800F055
:104FA000F7FD0125FFF73CFC00F0ACFBFFF712FC1E
:104FB00094F844305BB2B3F1FF3F02D1002384F890
:104FC000443094F845305BB2B3F1FF3F02D1002387
:104FD00084F84530FFF724FC01A902A800F0F0FD99
:104FE000C8B92046FFF73EFE0028C6D0019904F15B
:104FF000100000F06BFD2046FFF79DFE00F02AFC3C
:105000000028BFD14FF08052064B1A60BFF34F8F7C
:10501000BFF36F8FB6E72046FFF78DFE00F01AFC56
:10502000002099E704ED00E048B108B50021416097
:105030000160C1600B460A46FFF72AFF08BD7047B2
:1050400010B5024600210120FFF7FCFE0446FFF7E1
:10505000EBFF204610BD70B170B50446036CABB1D8
:105060004FF0500372B683F31188BFF36F8FBFF315
:105070004F8F62B6FEE74FF0500372B683F311888C
:10508000BFF36F8FBFF34F8F62B6FEE7036863B164
:10509000012383B94FF0500372B683F31188BFF335
:1050A0006F8FBFF34F8F62B6FEE743680BB90123E2
:1050B000EFE70023EDE70E46FFF77EFCEFF31185E7
:1050C0004FF0500372B683F31188BFF36F8FBFF3B5
:1050D0004F8F62B6A26BE36B9A421AD294F84530B6
:1050E0005BB20132A263B3F1FF3F0CD1636A93B1AB
:1050F00004F1240000F004FD78B186B10120306095
:1051000085F3118870BD01335BB284F8453001200E
:10511000F6E70020F4E70120F2E70120F0E70120A4
:10512000EEE700002DE9F04184B0019270B1044631
:10513000B9B10125DDB94FF0500372B683F3118880
:10514000BFF36F8FBFF34F8F62B6FEE74FF0500390
:1051500072B683F31188BFF36F8FBFF34F8F62B6C0
:10516000FEE7026C0AB90125E4E70025E2E71F46E5
:10517000884600F075FD10B9019B03B1002555B9B3
:105180004FF0500372B683F31188BFF36F8FBFF3F4
:105190004F8F62B6FEE700265DE0E6684146204696
:1051A000FFF7B7FDDFB9013DA563236813B900F030
:1051B00017FE6060236963B104F1100000F0A0FCE9
:1051C00038B14FF08052454B1A60BFF34F8FBFF399
:1051D0006F8FFFF725FB012004B0BDE8F081E6608A
:1051E000636A002BF5D004F1240000F089FC00284C
:1051F000EFD04FF08052394B1A60BFF34F8FBFF39F
:105200006F8FE6E7FFF70CFB0020E5E702A800F050
:10521000BFFC012629E0002384F8443031E000235C
:1052200084F8453033E0FFF7D5FA606800F028FDD8
:10523000FFF7F6FA3BE02046FFF77DFD00F00AFBA2
:1052400009E02046FFF777FD00F004FB2046FFF75A
:1052500018FD002840D1FFF7BDFAA56B002D9CD1A9
:10526000019B002BCED0002ED0D0FFF7D9FA00F052
:1052700049FAFFF7AFFA94F844305BB2B3F1FF3F5D
:10528000C9D094F845305BB2B3F1FF3FC7D0FFF708
:10529000C7FA01A902A800F093FC0028D1D120464A
:1052A000FFF7EFFC0028C6D02368002BBBD0019984
:1052B00004F1240000F00AFC2046FFF73CFD00F05A
:1052C000C9FA0028C7D14FF08052044B1A60BFF3CF
:1052D0004F8FBFF36F8FBEE700207DE704ED00E046
:1052E0002DE9F84370B10446B9B10123DBB94FF0A1
:1052F000500372B683F31188BFF36F8FBFF34F8FE4
:1053000062B6FEE74FF0500372B683F31188BFF325
:105310006F8FBFF34F8F62B6FEE7036C0BB90123AB
:10532000E4E70023E2E717468946FFF745FBEFF382
:1053300011864FF0500372B683F31188BFF36F8F5D
:10534000BFF34F8F62B6D4F83880B8F1000F20D089
:1053500094F844506DB249462046FFF7DAFC08F154
:10536000FF33A363B5F1FF3F0DD123699BB104F176
:10537000100000F0C5FB80B18FB10120386086F3CA
:105380001188BDE8F8836B1C5BB284F844300120BF
:10539000F5E70020F3E70120F1E70120EFE7012026
:1053A000EDE700000A4B1B681B684BB901234BB9A2
:1053B000074B1B68DB68DB685A68064B1A6070474E
:1053C0000023F4E74FF0FF32024B1A60704700BF32
:1053D00010F50020E8F5002010B50446006BFFF73B
:1053E00005FC2046FFF702FC10BD2DE9F047804682
:1053F0009946089D099F0A9C266B6FF04043134411
:1054000006EB830626F0070600230F2B07D8C85C9F
:10541000E21882F83400CA5C0AB10133F5E70023D0
:1054200084F84330062D00D90625E56265644FF007
:10543000000AC4F848A0201DFFF72EF904F1180057
:10544000FFF72AF92461C5F10705A5616462C4F874
:105450004CA084F850A04A4641463046FFF790F9E8
:10546000206007B13C60BDE8F087000038B500243B
:1054700007E004EB840293000E481844FFF701F99B
:105480000134062CF5D90C4D2846FFF7FAF80B4CE1
:105490002046FFF7F6F80A48FFF7F3F80948FFF748
:1054A000F0F80948FFF7EDF8084B1D60084B1C6049
:1054B00038BD00BF18F50020BCF50020D0F5002055
:1054C000F0F500201CF6002008F6002010F5002062
:1054D00014F5002010B50446FFF77CF9204A136844
:1054E000013313601F4B1B68002B31D01E4B1B6810
:1054F0003BB91C4B1B68DA6AE36A9A4201D8194B24
:105500001C601A4A136801331360E36A01229A404F
:105510001749086802430A6003EB83039A00211DC0
:1055200014481044FFF7BBF8FFF77AF90E4B1B68DD
:105530006BB10C4B1B68DA6AE36A9A4207D24FF0F0
:1055400080520D4B1A60BFF34F8FBFF36F8F10BDAA
:10555000044B1C601368012BD3D1FFF787FFD0E702
:10556000A4F500200CF5002004F60020B4F500207E
:10557000B8F5002018F5002004ED00E070B50446F1
:105580000E461F4B1D681F4B18680430FFF7ADF81F
:1055900050B91C4B1B68DA6A012303FA02F21A495C
:1055A0000B6823EA02030B60B4F1FF3F14BF002332
:1055B0000123002E08BF00239BB92C44114B1B680C
:1055C0005C60A54214D8114B18680E4B1968043161
:1055D000FFF771F80E4B1B689C4201D20C4B1C600C
:1055E00070BD084B196804310A48FFF758F870BDC0
:1055F000094B1868034B19680431FFF75CF870BD5C
:1056000030F600200CF50020B8F5002010F5002041
:10561000E8F5002008F6002014F500202DE9F043FD
:1056200085B006460F46154698469000FFF754FA97
:1056300000B381465420FFF74FFA0446B0B1C0F8DA
:105640003090CCB10023039302940D9B01930C9BEB
:10565000009343462A4639463046FFF7C6FE2046A9
:10566000FFF738FF012005B0BDE8F0834846FFF79B
:10567000BDFAE6E70024E4E74FF0FF30F3E700006F
:1056800000B583B0194B0193002300934FF480625F
:1056900017491848FFF7C2FF012805D0B0F1FF3FB6
:1056A00019D003B05DF804FB4FF0500372B683F3DA
:1056B0001188BFF36F8FBFF34F8F62B64FF0FF3289
:1056C0000D4B1A6001220D4B1A6000220C4B1A6020
:1056D000FFF71EF9E5E74FF0500372B683F3118828
:1056E000BFF36F8FBFF34F8F62B6FEE7E4F5002084
:1056F00084F20108055A0008E8F5002004F60020AD
:1057000030F60020024A136801331360704700BF6F
:10571000B0F50020014B1868704700BF30F600203C
:1057200008B5FFF749F9014B186808BD30F60020AD
:10573000F8B53D4B1B68002B6AD13C4B1D68013509
:105740001D60D5B93A4B1B681B6853B14FF050032D
:1057500072B683F31188BFF36F8FBFF34F8F62B6BA
:10576000FEE7334A1168334B186810601960324AFB
:10577000136801331360FFF715FE304B1B689D4221
:105780003AD200242E4B1B68DB6A03EB83039A009A
:105790002C4B9B58012B40D901243EE00124244B83
:1057A0001B681B6853B3002353BB214B1B68DB688A
:1057B000DE6873689D4228D3371D3846FEF795FF93
:1057C000B36A1BB106F11800FEF78FFFF36A0122DE
:1057D0009A401D49086802430A6003EB83039A005C
:1057E000394618481044FEF75AFFF26A144B1B68FA
:1057F000DB6A9A42D2D2D2E70024D0E70123D3E772
:105800004FF0FF320D4B1A60BCE70C4A1360B9E74A
:105810000E4A13680133136000240D4B1B6803B15B
:1058200001242046F8BD00BFB0F5002030F600206E
:1058300010F5002014F50020ECF50020E8F500201C
:105840000CF5002018F50020B8F50020ACF500207C
:1058500034F6002038B5364B1B6853B94FF050036F
:1058600072B683F31188BFF36F8FBFF34F8F62B6A9
:10587000FEE7FEF7AFFF2E4B1A68013A1A601B686D
:10588000002B50D12B4B1B6823B90024FEF7C8FF17
:10589000204638BD0024284B1B681BB3264BDB6811
:1058A000DC6804F11800FEF720FF251D2846FEF7EE
:1058B0001CFFE36A01229A402049086802430A60FB
:1058C00003EB83039A0029461D481044FEF7E7FEC8
:1058D000E26A1C4B1B68DB6A9A42DCD301221A4B3A
:1058E0001A60D8E70CB1FFF75DFD184B1C6874B95E
:1058F000154B1B68CBB14FF08052154B1A60BFF3AC
:105900004F8FBFF36F8F0124C0E7013C07D0FFF733
:105910000FFF0028F9D001220B4B1A60F5E7002297
:105920000A4B1A60E4E70024B0E70024AEE700BFAA
:10593000B0F50020A4F50020F0F50020B8F5002017
:1059400018F500200CF5002034F60020ACF50020FE
:1059500004ED00E010B5B8B10446114B1B6853B11B
:105960004FF0500372B683F31188BFF36F8FBFF30C
:105970004F8F62B6FEE7FFF7C5FE00212046FFF716
:10598000FDFDFFF767FF00E0002038B94FF08052BF
:10599000044B1A60BFF34F8FBFF36F8F10BD00BF72
:1059A000B0F5002004ED00E0134B1B6813B310B5F5
:1059B000FFF7A8FE114B1C68FFF74CFF24B90E4BF4
:1059C0001B68002BF4D110BDFEF704FF0B4BDB6806
:1059D000DC68201DFEF789FE094A1368013B13604D
:1059E000054A1368013B1360FEF71AFF2046FFF7D4
:1059F000F3FCE4E7704700BFA8F500201CF6002088
:105A0000A4F5002008B5FFF7CFFF064B1B68012B5C
:105A1000F9D94FF08052044B1A60BFF34F8FBFF398
:105A20006F8FF0E718F5002004ED00E0224B1B68B3
:105A3000D3B90022214B1A60214B1B68B3FA83F3C0
:105A4000DBB2C3F11F0303EB83018A001D498A58AF
:105A500072B94FF0500372B683F31188BFF36F8FA2
:105A6000BFF34F8F62B6FEE70122144B1A607047F6
:105A700010B414489A00D418A10001444C6864681A
:105A80004C601A4491000831084484420BD003EB67
:105A900083039A000B4B13445B68DA680A4B1A6065
:105AA0005DF8044B7047606803EB83029100054A80
:105AB0000A445060EBE700BFB0F5002034F6002048
:105AC000B8F5002018F500200CF5002050B94FF073
:105AD000500372B683F31188BFF36F8FBFF34F8FFC
